:020000040000FA
:10000000E8500020C5900000CDF80000B19000003D
:10001000B1900000B1900000B1900000B1900000DC
:10002000000000000000000000000000319200000D
:10003000B190000000000000C9910000B1900000E4
:10004000B9930000B9930000B9930000B993000080
:10005000B9930000B9930000B9930000B993000070
:10006000B9930000B9930000B9930000B993000060
:10007000B9930000B9930000B9930000B993000050
:10025000B993000003010100B9930000B9930000B5
:10026000B9930000B9930000ED000100B9930000BC
:10027000B9930000B9930000B9930000B99300004E
:10028000B9930000B9930000B9930000B99300003E
:10029000B9930000B9930000B9930000B99300002E
:1002A000B9930000B9930000B9930000B99300001E
:1002B000B9930000B9930000B9930000B99300000E
:1002C000B9930000B9930000B9930000B9930000FE
:1002D000B9930000B9930000B9930000B9930000EE
:1002E000B9930000B9930000B9930000B9930000DE
:1002F000B9930000B9930000B9930000B9930000CE
:10030000B9930000B9930000B9930000B9930000BD
:10031000B9930000B9930000B9930000B9930000AD
:10032000B9930000B9930000B9930000B99300009D
:10033000B9930000B9930000B9930000B99300008D
:10034000B9930000B9930000B9930000B99300007D
:10035000B9930000B9930000B9930000B99300006D
:10036000B9930000B9930000B9930000B99300005D
:10037000B9930000B9930000B9930000B99300004D
:10038000B9930000B9930000B9930000B99300003D
:10039000B9930000B9930000B9930000B99300002D
:1003A000B9930000B9930000B9930000B99300001D
:1003B000B9930000B9930000B9930000B99300000D
:1003C000B9930000B9930000B9930000B9930000FD
:1003D000B9930000D7000100B9930000B993000061
:1003E000B9930000B9930000B9930000B9930000DD
:1003F000B9930000B9930000B9930000B9930000CD
:10040000B9930000B9930000B9930000B9930000BC
:10041000B9930000B9930000B9930000B9930000AC
:10042000B9930000B9930000B9930000B99300009C
:10043000B9930000B9930000B9930000B99300008C
:10044000B9930000B9930000B9930000B99300007C
:10045000B9930000B9930000B9930000B99300006C
:10046000B9930000B9930000B9930000B99300005C
:0C047000B9930000B9930000B99300009C
:10048000064A074B02604FF490725B7A8280082222
:10049000C371FF2382710372704700BFB77B0000F6
:1004A000F8050020F8B5C41D0028054624F007040F
:1004B0000CBF0020204600F0D1FA071E02DA6FF0D0
:1004C0000B00F8BD254EB18870880331F3790330F5
:1004D000B27989B280B206F042FD0028EFDB3C44DD
:1004E00073783178002D04F10304194424F00304D7
:1004F00000FB01F10CBF0020204600F033FC231864
:100500000DB9002BDBDB717A184679B10333002D6E
:10051000728923F003040CBF0020204600F078FC11
:100520000028CCDB20440DB90028C8DB317A91B11A
:10053000737A83B1C41D002D24F007040CBF002082
:10054000204601F067FC0028B9DB0DB10020B8E7B8
:100550002018B6D5B3E7002DF8D1B2E7F805002092
:100560001FB572B6194BDC68ECB9BFF34F8F184951
:10057000184BCA6802F4E0621343CB60BFF34F8F9D
:1005800000BFFDE7B2FBF6F22B465D1C002AF9D155
:10059000DBB203F110056D4405F80C2C0A2233B9C7
:1005A00001A8A047E1E7024600230A26EDE7013B48
:1005B000DBB203F110050DEB0506B0FBF2F502FB13
:1005C0001500303006F80C0C2846E8E7F805002046
:1005D00000ED00E00400FA050A4B07B5DA8868462A
:1005E000ADF800209A885B88ADF80420ADF80230A1
:1005F00000F064FF18B1FC219C20FFF7B1FF03B0AD
:100600005DF804FBF805002038B5054640B305F059
:10061000B5FF10B94FF0FF3038BD05F045FEB0F51D
:10062000FA7FF7D8104C1148E56000F093F90023E9
:1006300023744FF4807323801B236380A38040F2D4
:100640000323E3804FF4847323811F236381EFF33B
:10065000108472B600F0B2FC04B962B60020DBE789
:100660006FF01500D8E700BFF8050020D90500009D
:1006700010B5002840D1234C237C032B39D059B12D
:10068000002A3CD00239052936D8DFE801F00312F0
:1006900027352A2D137863700020FFF703FF002809
:1006A000B7BF012302236FF00B002374A8BF23748C
:1006B00010BD13791BB353790BB31188FB291ED8D6
:1006C00053881B3B9BB2E02B19D81A2917D9136802
:1006D0009288C4F802300C4B9A80DDE7137863727D
:1006E000DAE713886381D7E71388FF2B07D82372D3
:1006F000D2E74FF0FF30DBE76FF02C00D8E76FF068
:100700001500D5E7F8050020FA050020F8B50D46DC
:10071000064620B319B311F0070420D1114F3B7CDA
:10072000012B02D16FF00B00F8BD032B02D14FF06B
:10073000FF30F9E700F054F80028F8D02846FFF71A
:10074000B1FE0028EEDB07F0FCFB3046214600F04E
:10075000F9FEFFF741FF032320463B74E4E76FF007
:100760001500E1E7F805002010B5064C237C032BAB
:1007700003D100F0FFFE01F07BFA06F0E9FC002057
:10078000207410BDF805002050B1074B03F114028E
:1007900053F8041B934240F8041BF9D10020704722
:1007A0006FF01500704700BF192D010008B500F06B
:1007B000AFFE03490120BDE8084000F047B900BF83
:1007C0008104000002680020014B1A60704700BFDE
:1007D0000C060020014B1B68184700BF0C060020C8
:1007E000024B1868003818BF012070470C06002023
:1007F0002DE9F7430446264E071D2548376001F0D2
:1008000047FA0228054607D12149204606F0FEF89E
:10081000284603B0BDE8F0830428F9D13378072BCC
:1008200018D13E2000F04AF878B9F37801A932795E
:10083000684643EA0223ADF8003006F0E4FA0028E7
:10084000DBD053210820FFF78BFE052000F06EF867
:100850000028EAD03146204606F010F9B0F5817F35
:1008600001D37221EEE70028C7D094F8008094F8F5
:100870000290404600F022F80028BED0B8F13E0FAA
:10088000C6D1484600F052F80028C1D1B5E700BFF4
:1008900010060020074B4FF0FF3141F6FF72C3E90D
:1008A000001205490022C1E900221F21C3E90212FA
:1008B000704700BF40000020540600203F280CD89D
:1008C00001380B4BC0F3421200F01F0053F82230E6
:1008D00023FA00F000F001007047FF2806D04038EE
:1008E000044BC0F3421200F01F00EFE701207047F5
:1008F0004000002054060020074B0146006849686C
:100900001A4603C240F48C221A6041F0107242F47D
:10091000FF625A60704700BF400000200246024B51
:100920000068516803C3704748000020431EF42844
:10093000DBB21FBF064A590903F01F0302EB810215
:100940001DBF9068D84000F001000020704700BF34
:1009500040000020014B1860704700BF5C0600207B
:1009600010B5FFF797FF06F052FC034B04461B68D7
:1009700003B19847204610BD5C0600200A8870B578
:1009800095B2C67CC2F30E020488023602F1180347
:100990003444C35AA4B233442344013BB3FBF4F3BD
:1009A00003FB0422438892B29342044B8BBF2B403B
:1009B000AB4313439BB20B8070BD00BF0080FFFFB1
:1009C0004A1E062A08B50346084604D84FF4D171DA
:1009D0001520FFF7C5FD094A914202D940F2A31143
:1009E000F6E711B903B1196008BD2BB11B680022ED
:1009F000C3E901211A1D1A600430F5E7FAFFFF7FF1
:100A000010B5114B00EB41041A786389B3FBF2F384
:100A100003FB0223013A1A44B2F5706F0279807821
:100A200028BF00231A440B18B2FBF0F100FB112180
:100A30005B1AB3FBF0F100FB113313446FEA43433D
:100A40006FEA5343638110BD60060020024B03EB45
:100A500080035960704700BF600600202DE9F04F09
:100A600010F0070A85B0054604D040F26111172046
:100A7000FFF776FD524F044607F10C06B146B0462B
:100A800057F8043B8DF80BA03BB101A898479DF89F
:100A90000A30082B01D9E821E9E79DF80B1041BB8A
:100AA00005B131604F4506F10406E9D1002D6ED045
:100AB0000022DFF810910227964689F8002058F8A6
:100AC00027A0013FBAF1000F54D09AF804609AF8B9
:100AD00002C0FF2E5FD039460023481C37D19C440A
:100AE000BCF1FF0F3ED90AB189F800E040F22711AE
:100AF000BDE79DF80AC04B1D60465A0004EB430356
:100B0000022838BF0220441E40422344BDF808405A
:100B10006444CCF1000C0340013C04EA0C04B4F53D
:100B2000803F01D3F821A2E775B19A1A0120326003
:100B300091701480D0709DF80C00107101984FEAEC
:100B4000104C1081A2F806C004FB0134AAE758F843
:100B5000210028B190F804B0B34504BF80781B1879
:100B60000139BAE7DBB2E6458AF804303CBF5FFAE8
:100B70008CFE01227B1CA2D10AB189F800E002267A
:100B800040F6FF6A58F82670B7B9013EFAD2601BEA
:100B900005B0BDE8F08F0023E5E707EB410309F15D
:100BA00001093846A3F80AA0FFF72AFF5FFA89F186
:100BB000BB788B42F1D8E8E74FF00009F6E700BFB9
:100BC000640600206006002038B54FF6FF73024629
:100BD0000380184B03EB81031869A8B1847803796B
:100BE000B3FBF4F104FB1133DBB2194600EB410512
:100BF000B5F90A50002D0EDB0131B1FBF4F504FB11
:100C00001511C9B28B42F1D1002038BD6381BDE816
:100C1000384006F080B900EB41046389C3F30E034A
:100C20001380C278002AF1D14FF4D5711720FFF755
:100C300097FC00BF600600201C4B03EB810370B5DE
:100C40001C69054644B3030404D54FF4DC71172036
:100C5000FFF786FC0146204606F040F9FF280146D2
:100C600004D02046BDE8704006F055B9A078B5FB29
:100C7000F0F300FB1353DBB219460A1D04EB4206E6
:100C8000B6F90260002E09DB0131B1FBF0F200FB86
:100C90001211C9B28B42F0D1002070BD8B4201D03D
:100CA0000023E37004EB42025580DAE7600600207F
:100CB000094B03EB8103014610B51C69204606F081
:100CC0000DF9FF28014604D02046BDE8104006F08B
:100CD00022B9002010BD00BF60060020F8B5104BFF
:100CE000074603EB810301461C69204606F0F6F82F
:100CF000FF28054611D0E288238953EA024606D030
:100D00000146204606F007F901463846B04720461E
:100D10002946FFF775FE0020F8BD0520FCE700BF5F
:100D20006006002038B50E4B0446827903EB82033F
:100D3000186908B9052038BD8278E1799142F9D265
:100D40004B1CE37100EB41035D89B3F90A30002BC2
:100D5000F3DBA58006F0DFF820600020EBE700BFA2
:100D60006006002070B5044610F003000E4603D064
:100D70004E211820FFF7F4FBFFF722FE054624B1B1
:100D8000034831460460FFF71BFE284670BD00BFD4
:100D90007C0600202DE9F14FDFF870B01E460746B3
:100DA0000D46DBF8003090469DF828A09DF82C9069
:100DB0001BB960211820FFF7D3FB5246092140469A
:100DC00006F04AF84A4684B20921304606F044F853
:100DD00081B2DBF80000214406F05BF8386018B9F6
:100DE000286001B0BDE8F08F044453464146092213
:100DF0002C60386806F00FF84B4609223146286807
:100E000001B0BDE8F04F06F006B800BF7C06002038
:100E10001F2AF8B5044613460ED89200033222F07A
:100E20000303B3F5803F2DD2184DACB1A00710D00D
:100E30005F210920FFF794FBFF2B4FEA420204D900
:100E4000FF339A42A8BF1A46E8E77C2AB8BF7C2243
:100E5000E4E729706C602B8122F00302282301272C
:100E6000120403FB01F06B680025120CEEB2B142D4
:100E700000D8F8BD14B126181F705E60104401350B
:100E80002833F3E74FF0FF30F3E700BF8006002080
:100E9000154A002170B553681578C8B2854203D849
:100EA000AB210920FFF75CFB1C461846013114F802
:100EB000286B0EB92346F0E70021997001241289AE
:100EC000996103F126055C709208D96103F11E0453
:100ED000596824F8022FA54243F8041F1144F8D1A1
:100EE00000234361037070BD800600204B782DE91C
:100EF000F04106460C4602F0040702F0FB05E3B1A0
:100F0000A5BBFF23A3707B0804EB57073A7D032A98
:100F100002D1022D18BF0133E2180121117503F12E
:100F20000C01002204EB830324F811205B68A270FB
:100F300030463360B280BDE8F081002DE1D101235D
:100F400001F11E028D6120464B7004F1260C1A4BF4
:100F5000CD611B8949689B0822F8023F944540F8FF
:100F6000041F1944F8D100236361CAE7D1F8048053
:100F700014220021A018617007F0ADF90E4B1B89F7
:100F8000B3F5FF7F0FD25A089B1A9BB208EB0301FF
:100F9000C4F804802384A1606284C4F80C80A38414
:100FA0002161E284ADE7B3F5EE6F4FF0FF02EBD9BC
:100FB00040F27263EAE700BF800600201F4B4FF04B
:100FC000FF3000211A6801235360C2F80803C2F8F9
:100FD0000015C2F804351A4A12685360C2F80803B3
:100FE000C2F8001540F6FE71164A1748C2F80815F7
:100FF000B0F90020002A0CDB510902F01F029340D7
:1010000001F12002114941F82230BFF34F8FBFF3A5
:101010006F8FB0F90030002B09DB5A09012103F072
:101020001F03994002F16003084A42F82310054B60
:1010300040F6FE72C3F80825704700BF600E00201E
:101040005C0E002000200850740E002000E100E03B
:10105000014B1876704700BF9006002010B50121A3
:101060000020FFF725FE044670B90121FFF7E4FDDB
:10107000044620B940F293313920FFF771FA034B4F
:1010800093F9061006F069FD204610BD30070020D8
:1010900008B506F0CCFA00F0EDFB00F08DFA06F092
:1010A000F0FB00F0C9FE00F0E5FC0022084B1B211C
:1010B0004FF4A4701A60074B98801A805980064834
:1010C000064B186099805A745A829A829A7508BDA4
:1010D000880000203007002003021B005C0B00206A
:1010E000044B41F64C52C3E902221B221A74FFF74B
:1010F000CFBF00BF5C0B002073B5234D0446AB6827
:101100000363224B836106F047FC064600F044FA75
:101110008306297C53BF1B236B88AA881A46A4F830
:101120005A301B4BA4F85C201B6884F83810668783
:101130001BB194F9701020889847164E204631460E
:1011400006F001FB01236A8804F110006978E38549
:101150000332AB88019192B216F8121C033300914E
:101160009BB204F11401FFF715FE236923B940F285
:10117000CC613920FFF7F4F9636913B940F2CD610E
:10118000F7E7002002B070BD5C0B002000093D00B5
:101190008C0000206E0B0020F7B504460D4606F0CB
:1011A0000FFD00286DD0204606F0E6FD38B1B5F8F9
:1011B0000130013B7F2B02D9122003B0F0BD204645
:1011C00006F0DEFD08B90C20F7E7204606F076FCB5
:1011D0000028F8D1204606F0B1FC06460028F2D1DE
:1011E000204601F011FB0028E6D042F21073B5F85A
:1011F0000170E97820465F4306F0AAFD204606F01C
:10120000B3FD014648B93A46204600F0E7FEB0B3C8
:1012100041F6A5413920FFF7A3F931460DF106004B
:10122000FFF7D2FC054608B90D20C6E7314606F0A7
:101230003EFABDF80630204629462B8006F0AAFD6E
:10124000204606F0A3FD88B9216A204606F0A0FDDD
:1012500001462846FFF750FF3A462946204600F04F
:10126000BDFE024620B141F6C841D3E70121F0E7B7
:10127000054B9B681BB105F58D71284698470020EA
:101280009BE7422099E700BF30070020034B5A88B4
:1012900002801B7883700020704700BF5C0B002029
:1012A000F7B5077805460C46EF2F0FD890F90120C7
:1012B0004378002A0ADB8278900707D113F01000E8
:1012C0001DD1990603F0030202D51AB1122442E09F
:1012D000032AFBD01E07F9D42979EA78EE7942EA8D
:1012E0000122697942EA0142A97941EA06212E7A6E
:1012F00041EA06418A42E9D81F2A0FD8E6E713F0EF
:10130000600FE3D103F00702052A05D003F00F01B7
:101310000D22CA40D107D9D51A07DDD56A7A013A1C
:10132000062AD3D8AA7A032AD0D813F0040102D10E
:10133000023A012A03D8EA7A012AC7D811B9AA7C4D
:10134000032AC3D82A7D48B1012ABFD12A7E012AA7
:10135000BCD830B91124204603B0F0BD022AF5D123
:10136000B4E7DB0712D46B782A7D03F01803082B4F
:1013700011D1022AEED101213846FFF799FC064629
:1013800078B106F09BFBB8B10C24E4E700F0D4F888
:101390000028E8D1DEE7022AEDD02B7F002BEAD02F
:1013A000D8E701213846FFF747FC064640B3154B06
:1013B00093F9061006F0D1FB304606F0D2FC294620
:1013C0002070E874304606F017FCEB7E0446002BD4
:1013D000C1D00028BFD10246316B6846FFF786FDB9
:1013E0002246306B012105F001FE316B6846042274
:1013F000FFF77CFD22462146306B05F0F7FDAAE79A
:101400000724A8E73007002030B502798BB00346E7
:10141000042A4FD84088B0F5804F4BD82649002485
:101420008D5C1144ADF800404A798DF8084042F0D7
:1014300010028DF8244042EA45028D7AC97B42EAC7
:10144000850242EAC102694602F01F028DF80020BF
:10145000BDF80020ADF809201A888DF80E00000AAA
:101460008DF80B20120A8DF80D408DF80C208DF8A8
:101470000F008DF810405A7BD3F807008DF811202B
:101480005A79059002A88DF812209A798DF81320C8
:10149000B3F80B209B7BADF818208DF81A307F2312
:1014A0008DF81B304FF00113CDE90734FFF7F8FE3C
:1014B0000BB030BD1220FBE7DC1E010002780346B2
:1014C00072B1427862B142881A2A09D982881A2AEE
:1014D00006D90068034A106000209B8893807047FB
:1014E000122070475C0B002002680020014B9A60BC
:1014F000704700BF5C0B002008B501F07DF900F0DB
:1015000059FE0248BDE8084001F060B93C070020E0
:1015100010B5064C064904F5027006F068F804F5AB
:1015200003700449BDE8104006F061B83C07002094
:101530009000002098000020014B93F802017047B2
:101540003C07002010B5074C00F07EFBD4F80802E1
:1015500006F045F8FFF7C4FD00F000FC012384F815
:10156000143210BD3C070020014B93F81402704761
:101570003C07002010B5074CD4F80C0206F02FF8F9
:10158000D4F8100206F02BF8FFF782FD002384F850
:10159000143210BD3C070020014BD3E90001704715
:1015A00050000020034B1868C0F30020400040F0BA
:1015B000010070475000002008B504F075FE0023BC
:1015C000074A32F82310814205D302EB8302937855
:1015D000044A137008BD01330C2BF2D10023F7E746
:1015E000F01E010051090020054B9A8C824201BF78
:1015F000002283F822204FF6FF729A84704700BFC2
:101600005209002050B90A4A0120134603F8010B81
:101610000868C2F801008A889A807047012805D1BD
:10162000034B0A68D8719A608A889A81704700BF14
:101630007C09002050B90B4B187888B1D3F80120F1
:10164000B3F805300A6001208B807047012806D16D
:10165000044BD87920B19A689B890A60F3E700208F
:10166000704700BF7C09002010B9044B1878704700
:10167000012806BF014BD879002070477C09002063
:10168000F7B58A8800238DF80600ADF804200868B5
:101690000B4A8DF807300146147802F5A872019DB7
:1016A000D8B2844201D8082007E052F8087F0133FD
:1016B0005668AE4208BF8F42F2D103B0F0BD00BF02
:1016C00090090020084B0146002230B55C7803F2F7
:1016D0000113D0B2844201D8082004E013F8015F5E
:1016E00001328D42F5D130BD90090020F0B5254D75
:1016F00089B095F8984105F299116846224605F09F
:10170000E5F82146684605F0B1FF0446B8B300EBA2
:10171000400102A8C9B2FFF75DF8631E95F8A16108
:101720000124DBB295F8981105E0721CB2FBF1F0D0
:1017300001FB1022D6B206F120020DEB020010F8D8
:10174000202C002AF1D103EB430100F8204C06EBDA
:10175000460220312A44694411F8187C82F8A271AB
:1017600011F8177C11F8161C82F8A37182F8A411E5
:10177000013BAA19DBB282F89941FF2BD2D109B003
:10178000F0BD00BF9009002070B5064688B00C4639
:10179000002A4ED0294A92F8A131D01890F8991118
:1017A00019B9FF212820FEF7DBFE03EB43010133CB
:1017B000114491F8A251E57091F8A35191F8A41148
:1017C00025716171002180F8991192F89811B3FB8D
:1017D000F1F001FB103382F8A13192F8C23123B944
:1017E000174902F5DD7006F06EF865790D220021CB
:1017F000684605F03F0545F04005657106F06BFD54
:10180000E37804AA69468DF80F30304623798DF8C5
:101810000D508DF80E30042306F0C7FC9DF81F30E4
:1018200023709DF81E3063709DF81D30A37008B0C2
:1018300070BD03216018FEF7CDFFD6E790090020A8
:10184000ED160000044B5A78824286BF1B1893F8AD
:101850004A010020704700BF90090020044B5A78CD
:10186000824286BF1B1893F842010020704700BFD8
:1018700090090020064B00224FF461711A8083F812
:10188000C32183F8C421A3F8C61183F8C22170478D
:1018900090090020014BB3F8C60170479009002061
:1018A0000A4B30B55C7884420ED9184490F8020196
:1018B0002B3003EBC004A5790D7053F83000106095
:1018C0000120A388938030BD0020FCE79009002010
:1018D0000246074810B590F8C34124B1417821B1C0
:1018E000023001F029F9204610BD0C46FBE700BF8D
:1018F000900900202DE9F74F2F4C9A4680468946E3
:101900006378834256D9231893F8425185F0010534
:10191000F9B193F84A31E3B945F002070135BAF15C
:10192000000F18D1FA070AD5062104EB0810524619
:1019300001FB0841823001F58571FFF725FFBB07E8
:1019400034D504EB0810524649460230FFF71CFF1D
:101950002CE02F46E3E794F8A1614FF0010B002D36
:10196000E0D0A31993F89911019399B90092DAB1D3
:1019700000F0C4F9019B06EB4601009A4FEA102CD7
:1019800083F899B1214481F8A201000C81F8A3C128
:1019900081F8A401013694F89831013DB6FBF3F1CA
:1019A00003FB1166F6B2DAE747F00407384603B0E6
:1019B000BDE8F08F0027F9E790090020074B5A781F
:1019C000824209D91A1892F842212AB9062202FB4A
:1019D000003000F5857070470020704790090020A6
:1019E000064B5A78824281BF1B1893F83A01B0FA2D
:1019F00080F0400998BF0020704700BF9009002088
:101A000030B5002442F21075A0F84040B0F84440D0
:101A10004C43B4FBF2F4A0F84440541E05FB0343CE
:101A2000B3FBF2F3A0F84230084BB3FBF2F30133FF
:101A3000A0F84830838F05FB0344436B5943B4FB44
:101A4000F2F4B1FBF2F18463416330BD005A6202EB
:101A5000074B93F900301844142804DC10F17F0F71
:101A600003DB40B27047142070476FF07E00704770
:101A7000580B0020024B00221A705A70704700BFAA
:101A8000580B002083230B70014B1B78CB707047E1
:101A9000740B00202DE9F34782468946052700266E
:101AA000DFF84881D9F8103053B11B7A1BB9802177
:101AB0001020FEF755FDD9F81040B4B9002071E0B0
:101AC000D9F80440237A012BF8D0EFF3108372B6D3
:101AD000D9F804201268C9F8042003B962B6C9F81D
:101AE0001040237A0BB9A621E2E7257AEDB22772DE
:101AF0006B1E0B2B6AD8DFE803F066061C346369A3
:101B00003D6969696958636813B94FF4D771CFE7C4
:101B10002046514698470420EFF3108272B6237A8C
:101B2000052BD9B25CD12672C9F81060B2B962B681
:101B300014E0636813B940F2B711B9E75146204683
:101B400098470346ADF80400C0B2C3F30723012B46
:101B50003FD0022BE0D10023C9F810300028A1D0DB
:101B600020E0636813B940F2BF11A1E7204698470F
:101B70000020D1E763680BB9B52199E70B22002457
:101B80008AF800200122198818698AF80220AAF828
:101B900003108AF805208AF8064005F070F9042041
:101BA000C9F8104002B0BDE8F087D8F800305146BF
:101BB00020469847034660B10220C9F81060F1E75B
:101BC0004FF4FB7174E740F2F91171E74FF4FE71C5
:101BD0006EE725720028E5D1002B7FF463AF6DE737
:101BE00011B940F21D2163E700209FE7A400002007
:101BF00038B5134C14220021201D06F06CFB012582
:101C0000257404F108031422002104F11800C4E92A
:101C1000013306F060FB84F8245004F11C03094AE8
:101C2000C4E906330023E362236384F83430C4F844
:101C30003530C4F8393084F83D30136038BD00BF0A
:101C4000740B0020A000002010B5084C2378FF2B57
:101C500004D04FF4A0711020FEF782FC04F06AFD5E
:101C60002070BDE81040FFF7C3BF00BF5D0000203B
:101C700010B5034C207804F077FDFF23237010BDCE
:101C80005D000020014B187804F07EBD5D0000204F
:101C900010B506490446FFF7FDFE28B92046044961
:101CA000BDE81040FFF7F6BE10BD00BF8C0B002052
:101CB000780B0020134610B5027A22B140F2992128
:101CC0001020FEF74DFC0A4601460248BDE81040D0
:101CD00005F0D9BD780B00200346064890F83E2059
:101CE0003AB190F83D2022B9034900F8353B05F0A0
:101CF000E7BD7047740B0020851A0000094AD2E93D
:101D00000003434083EAB01181EA43214FEAF343E1
:101D100011605360044B58434FEAF06000EB8000C1
:101D2000704700BFB40B0020BB79379E094AD2E947
:101D30000003434083EAB01181EA43214FEAF343B1
:101D400011605360044B58434FEAF06000EB800091
:101D5000704700BF60000020BB79379E10B50A4C69
:101D600008210948FEF736FDD4E900321343F7D0C5
:101D7000064CFFF7DBFF2060FFF7D8FF23686060A9
:101D80001843F6D010BD00BF60000020B40B002047
:101D9000F0B51F4D00242B7814709BB1013B6D688A
:101DA000DBB21E1B012E0FDC05EBC40655F83470A8
:101DB00076688E4208BF874227D0B84271EB06068C
:101DC00012D214700020F0BD1E197710C6F347061A
:101DD00055F837C005EBC70E8445DEF804708F4117
:101DE0002CBF33463446DCE705EBC30455F83350CB
:101DF00064688C4208BF854206D0A84271EB040497
:101E000028BF01331370DDE71C4601201470DAE7A8
:101E1000DC0B002010F0070208B503D06321482036
:101E2000FEF79EFB18B1034B197258601A70C80078
:101E300008BD00BFDC0B0020014B00221A70704768
:101E4000DC0B0020F7B5044618B9E2213020FEF77C
:101E500087FB072900F2BC80DFE801F004844646D6
:101E600041BA33B703F0DCF9C4E94001204600F081
:101E7000F3FDD4F8F400A43803F028FA10B940F2C6
:101E80007B21E3E7204605F077FF0546F8B90146D8
:101E9000204605F09AFE00F1AE06D4F8F400B042F8
:101EA00009D2301A0321192838BF192003F029F963
:101EB000051E18BF0125C4F8F460204605F076FF22
:101EC0003DB1204603B0BDE8F04005F070BF0025ED
:101ED000F3E7D4E94023C4E93A2303B0F0BD03B0EB
:101EE000BDE8F04001F02CBC05F07AFE0023074667
:101EF0000E4684F8F93002F0F7FF0722A7FB0235FF
:101F000002FB0655D4F8EC200192D4F8E8209B1887
:101F1000019A45EB0205D4F8CC2032B157EA06020B
:101F200003D0984271EB050216D2022284F8F82001
:101F3000D4F80821D4F80CC1121A6CEB010C94F8F7
:101F400018E1BEF1000F09D1012A7CF1000E11DA6F
:101F5000204600F089FD05E00122E7E7012A7CF137
:101F6000000CF5DB94F8C80002F0D6FF002384F8DB
:101F70001031B2E7984271EB050E0ED23E430CD001
:101F80001B1A65EB01019A427CEB010005DB012B7A
:101F900071F10000A4BF1A468C460F49012394F842
:101FA000C800914284F811314FF0000384F8F030FA
:101FB00073EB0C03B8BF0A4604F1F00103F0A6F975
:101FC00000288AD140F2EF6140E74FF480713DE78D
:101FD0004FF482713AE700BF0040420F2DE9F04113
:101FE00004460E46154690F8103103F0FF071BB16A
:101FF0000C273846BDE8F0810146474802F09CFFB7
:1020000020288046F4D05722394604F1C90006F052
:1020100062F984F8C880C4F8CC60FF2384F81031DA
:1020200036B1FFF783FE00F00700013086F8CC01DF
:1020300002234FF00008A4F8F83084F8F08004F090
:102040003DF900F14906204605F096FE0146B6B27C
:10205000002839D005F0E9FA00F5CD61284689B2AB
:1020600004F0D6F82844AE3DC4F8F40002F03CFF7A
:102070003018A4F8268041F10001C4E94001012094
:1020800084F8D00005F02FFF2D1AC4F8D4504FF07B
:10209000FF356FF0004194F8C800D4E94023C4E94B
:1020A0004251002504F1F001C4E93823C4E93A2380
:1020B00084F8115142F2107203F028F938BB40F253
:1020C000EB113020FEF74CFA2046DFF8508005F087
:1020D0007CFDAE30C4F8F400B8F8000048B1E08CE4
:1020E00038B1FFF723FEB8F80030B0FBF3F202FB83
:1020F0001300064402F0F8FE361841F10001C4E96D
:102100004061002DC3D0AD1941F10001C3E729465C
:10211000204605F04EFE6CE7451E0000080C00202E
:10212000F0B5002385B0CDE9003301238DF80630EA
:102130006846FEF7F7FD70B11D4E01230027B3700E
:10214000CDE9027702A8FEF7EDFD0546C8B10023F0
:10215000B37005B0F0BD009805F0E7FBE8E790F834
:10216000F70102F099FF94F8F70103F03FF894F8B3
:10217000F70184F8DC5102F0CFFE202384F8F73118
:10218000DEE7029B002BDDD093F8F721202AD9D07F
:1021900018884FF6FF739842D9D02946FEF788FD7C
:1021A00004460028DBD140F237113020FEF7D8F981
:1021B000080C0020044B0022DA709A7042F2107270
:1021C0001A80FFF7ADBF00BF080C0020014BD8708C
:1021D000704700BF080C0020014B1880704700BFFB
:1021E000080C00200346074A1068D3F85120C0F8B5
:1021F0000320B3F85520A0F8072093F8501005F0FD
:10220000C5BA00BF100C002070B504460E46134638
:10221000407F6588324615F0040118BF04F15F0164
:10222000FFF768FB4107054621D4C2070BD5012300
:10223000607F84F85030FFF7C1FB0368C4F8513069
:102240008388A4F85530AB0701D4012070BD094B39
:1022500001211868D4F85F3084F85E10C0F80930A6
:10226000B4F86330A0F80D3005F099FAEDE70020DE
:10227000ECE700BF100C002038B5C38D04460F4DAD
:102280000133C3F30E03C385AB7C2BB101F03EFADF
:1022900000F0B0FC0023AB7400232B7194F8713074
:1022A0002BB101212046BDE8384005F085BB637C99
:1022B00013B1E28D9A42F4D20021F3E7100C002012
:1022C00010B5094C2379012B02D02379022B05D1BB
:1022D000A37C1BB101F01AFA00F08CFCE069BDE8A8
:1022E0001040FFF7C9BF00BF100C002070B5294C8B
:1022F0002379012B07D02379022B04D040F65C41CF
:102300002D20FEF72DF9A0B90125A37C1BB101F00A
:10231000FDF900F06FFC002D3AD0E06905F02AFBD2
:10232000002830D001F0F0F8236ABDE870409B68C7
:1023300018472168E26911F8095B02F1510392F82C
:102340005020E80905F074F90028DDD0002120684C
:1023500005F04AFA0028D7D02379E069012B05D08F
:102360002379022B02D040F63541C9E7237905F0E5
:102370000F01226A03F180435269013B52F8233076
:1023800098470546C1E7E069BDE87040FFF774BFB4
:1023900070BD00BF100C00200346074AD06903B986
:1023A00009B9FFF769BF1379126A03F18043126913
:1023B000033B52F823301847100C002003292DE965
:1023C000F043054685B0174607D14388980723D4C4
:1023D0000024204605B0BDE8F083428890F87030B4
:1023E000D107DBB2F4D5002BF2D14FF00108DFF8B2
:1023F000D49099F81260C6B105F04FF908283870EA
:1024000016D002AA0DF10701FFF74AFA38B940F6D3
:10241000D4612D20FEF7A4F84FF00208E7E702A9E7
:102420009DF8070005F06CFA06463B78082B08D1AA
:10243000D9F8001011F8030BC0F3801005F060FA12
:102440000646D9F8001005F1580395F8572011F801
:10245000030BC0F3801005F0EBF8D9F80010044628
:1024600011F8030BC0F3801005F00DF98146FFF75A
:10247000B7FA40B1B9F1080F1BD04846FFF7E2F9AF
:1024800080F00103D8B23A78082A14D01CB96C7FC6
:10249000A21A544254416A8853079AD4002897D10B
:1024A00076B9EC7C444518BF002C0CBF01240024F5
:1024B0008FE70020E7E780F001022240D4B2EAE78C
:1024C000344686E7100C0020032973B5044604D077
:1024D000052956D0012002B070BD08230DF1070276
:1024E0008DF80730FFF76AFF0028F3D0237C294DD1
:1024F00003B39DF8070094F8BE30DBB923780828B1
:1025000004F1C10284F8BF302CD004F1C001FFF700
:10251000C7F920B940F64A712D20FEF721F894F84A
:10252000C03043F0020384F8C0301B4904F1B60008
:1025300005F0C6F92B680622042620465A701E7044
:10254000FFF750FEE16B94F84020286805F03DF954
:1025500028682E7101F090F80021286805F00EFD22
:102560000020B8E72868034613F8031BC1F3801165
:1025700084F8C010D0F80310C4F8C1109B88938071
:10258000D3E7064B1B68002BEAD0984780F0010088
:10259000C0B2A0E7100C0020C97A0000A8000020FB
:1025A000F8B504460F4619B300F12805284605F092
:1025B00077FCA0B963881A072ED5284605F085FC5C
:1025C0000646284605F06CFC301AC0B205F08BFCBC
:1025D000494A936803442846936005F040FC284626
:1025E00005F042FC00F0E2FE2179252000F040FEDB
:1025F000414E002394F85E20306803704370638876
:10260000103B0D2B68D8DFE803F063675F0C67446D
:1026100067676767676767442046BDE8F840FFF76C
:102620002BBE06234370202303702046FFF7DAFDFC
:10263000638823F008039BB2152B05D094F838204B
:10264000616B306805F0B2F8306801F015F80021D0
:10265000306805F093FC032321790020337100F0EA
:10266000CFFE054607B9F06063881B0704D505F067
:1026700037FC0544C4F8D8506388103B0D2B36D87E
:10268000DFE803F038352F2F352F35353535353523
:10269000352F0C2321214370034603F8091B52B147
:1026A000D4F85F200121C0F80920B4F863209A8093
:1026B00005F075F8B9E7A26DC0F80920B4F85C2000
:1026C0009A8094F85710F3E7062303704370ACE741
:1026D000022303700623F9E740F236612D20FDF74F
:1026E0003FFF21790120BDE8F84001F01DB840F618
:1026F000CF41F3E7F8BD00BF100C002038B5438888
:102700000446102B04D10121BDE83840FFF748BF33
:102710000B4DAB7C23B100F041FA402000F0EAFF02
:10272000286800F0A9FF608810F0040002D1217928
:1027300000F0FAFF002000F0BBFF01232B7138BD31
:10274000100C0020024B0121D869FFF729BF00BF00
:10275000100C002010B5134CA37C1BB100F0D6FF69
:1027600000F048FAE06905F005F970B12379012B12
:1027700010D12379226A03F18043E069D268013BDA
:10278000BDE8104052F823301847E069BDE810401A
:10279000FFF772BD2379022BEBD040F65E312D207E
:1027A000FDF7DEFE100C0020074810B5037903F09A
:1027B000FF0433B918222146043005F08CFD204671
:1027C00010BD0C24FBE700BF100C002010B5002347
:1027D000084C23712060FFF7E7FF20B140F2EF21A2
:1027E0002D20FDF7BDFE236A13B940F2F221F7E771
:1027F00010BD00BF100C0020014B024A1A62704746
:10280000100C0020AC2A0000F8B5057D0446AF1E70
:10281000FFB2002D3AD0012F2DD800F1580190F8C9
:10282000570004F030FF0828064624D0FFF716F8BA
:1028300010BB023D18BF0125012F84F85050667768
:102840008CBF002701272777FFF724F8054602F001
:102850004BFB0022164B84F85E20E5FB0301C4E924
:10286000120111462046FFF7CFFC70B940F27A41C1
:102870002D20FDF775FE0826022D09D104F1510126
:102880000020FEF7D7FE80B90020F8BD0826F5E746
:10289000E37E002BF8D0D4F815300125C4F8513070
:1028A000B4F81930A4F85530C6E70025C4E700BFD6
:1028B00040420F00F0B5464E85B00446327902F032
:1028C000FF0312B90278FF2A04D140F6B9112D2076
:1028D000FDF746FE3382B3607371B37180F87130D7
:1028E0003C4B684604F1280500933B4B01933B4B5E
:1028F0000293336A5B68039300F0B6FE00F0EAFCD3
:1029000000F004FF00F076F9354800F045FD354849
:1029100000F0A4FE284605F0A2FA284605F0A4FA25
:1029200000F044FD2179252000F0A2FC94F912006A
:1029300000F02CFD04F13401206B04F075FB074618
:1029400004F13C01206B04F096FB0546E7B194F8D6
:102950002430CBB1B4F92E50ED43ED0F237F13B9E2
:1029600063885B0709D56FF00043D4E912129A42DD
:1029700008BFB1F1FF3F0ED1A5B930680330FEF7B3
:10298000A7FFB07405B0F0BD002DE7D094F8255036
:10299000002DDFD1E2E702F0A7FAD4E9122390423A
:1029A0009941E9D3012229462046FFF72DFC50B179
:1029B000FEF770FF054602F097FA0B4BE5FB0301AB
:1029C000C4E91201D9E7002DD7D040F6F6117EE711
:1029D000100C002055270000ED2200009923000074
:1029E000D6BE898E5555550040420F0073B504463A
:1029F000FFF760FF00212046FFF7D2FDA36E0BB169
:102A000001221A606388DB0720D50023104E256A57
:102A1000CDE90033FF23F3746846FEF783F9A8B9C4
:102A2000009CA542F8D005F10A036A7A04F10A0174
:102A3000607A04F0FDFD0028EED0A378F374D4F89A
:102A40000300044B7061B4F807209A8002B070BD97
:102A5000100C0020240C0020024BD8611B6A1B685C
:102A6000184700BF100C002043881B0710B5044610
:102A70000ED5036A3C220849723042721B8843819A
:102A8000FF2380F827304FF6FF73038504F018FF0B
:102A9000FF2384F8713010BDE17A0000337B000021
:102AA000FD260000397B0000C9240000ED2900004C
:102AB000C1220000452700009C2A0000A02A000037
:102AC000A82A00000138022808B503D9C3212F2005
:102AD000FDF746FD13290A4B05D811290CD81029FA
:102AE00007D0D121F3E71529FBD103EB4003D888A8
:102AF00001E033F8100008BD03EB40039889FAE7C2
:102B0000C21F0100064B1B68D3F8000138B1D3F88F
:102B1000040120B1D3F80801B0FA80F040097047F1
:102B20005C0E0020034B00221A705A7010229A701B
:102B3000704700BF500C0020F8B50646022014462E
:102B40000D4600F01FF9114B114A0127191D5C6059
:102B50009A6002F1807203342D011F70DC601D83C6
:102B6000C3E904260022243303F80A2C0D2203F8BB
:102B7000092C084A1268C2F830150749C2F80875CE
:102B8000C2F8383503C983E80300F8BD500C0020B3
:102B90000300000B5C0E0020E01F010008B50220BE
:102BA00000F0F0F80D4B01221A7000220C4B1B684C
:102BB000C3F80021C3F80421C3F80821094AC3F867
:102BC0008020094BC3F88C20084B1B68C3F88C216C
:102BD0000822074BC3F8042508BD00BF500C002095
:102BE0005C0E00200300008000300850680E0020BA
:102BF00000200450154A08B51378FBB1144B19682E
:102C00000023C1F880301349C1F88C30124909689B
:102C1000C1F88C310821114BC3F80815FFF772FF7A
:102C200088B101235370938EFF2B03D9BA213B2027
:102C3000FDF796FCDBB29370002313700020BDE813
:102C4000084000F09FB810235070F4E7500C0020AB
:102C50005C0E002000300850680E00200020045058
:102C60000A4B1A786AB10A4B1B68D3F8002152B19B
:102C7000D3F8040140B1D3F80801B0FA80F040095C
:102C80007047587870470220704700BF500C0020F2
:102C90005C0E0020064A08B513782BB1FFF732FF0F
:102CA00020B192F8340008BD9078FCE71020FAE7D4
:102CB000500C00200A4B02211A680023C2F8803011
:102CC000084AC2F88430084A1268C2F88431074AB8
:102CD000C2F8081502F58022C2F80835704700BF17
:102CE000600E002000300850680E002000200450C4
:102CF000024B00221A809A70704700BF880C002097
:102D0000054808B503781BB1FFF7D4FF0023037013
:102D100000234370837008BD880C002038B50A4D2D
:102D200000242B68D3F80025032A04BF01225A602F
:102D3000064A1268C2F80045C3F80045FFF7E0FFF5
:102D40002B68C3F8804038BD5C0E0020600E002068
:102D50000A4BB3F90030002B0DDB5A09012103F0B7
:102D60001F03994002F12003054A42F82310BFF3E4
:102D70004F8FBFF36F8FFFF7D1BF00BF740E0020DE
:102D800000E100E010B50446FFF7C8FF012C06D0B3
:102D9000022C0AD044B18C213D20FDF7E1FB084B09
:102DA00002221B68C3F8002510BD064B03221B68D6
:102DB000C3F8002502F10042C3F88020F4E700BF09
:102DC000600E00205C0E0020024BD3F8A00300F040
:102DD0000100704700C0FF00084BD3F8A423D3F8CC
:102DE000A833511C9BB203D14FF6FF718B4203D025
:102DF00002608380012070470020704700C0FF0000
:102E00000B4B30B5D3F89053D3F89443D3F89813C1
:102E1000D3F89C2305EA04030B401340013317BF8A
:102E200005600020446081601CBFC260012030BD8D
:102E300000C0FF000B4B30B5D3F88053D3F8844368
:102E4000D3F88813D3F88C2305EA04030B4013400E
:102E5000013317BF05600020446081601CBFC26061
:102E6000012030BD00C0FF00064B0022C3F8002245
:102E7000C3F81822C3F82022C3F80C22C3F8142286
:102E8000704700BF00A00850024B00221A809A70C1
:102E90001A717047F80C002038B5144D03460846E7
:102EA00095F83D2022B940F6B2113E20FDF758FBBF
:102EB0006BB9012AAC6B95F83C1005D100F0D4FD3C
:102EC00020442B6BC01A38BD05F05EF8F8E7012BE3
:102ED0000AD1012AAC6B95F83C1002D100F0B6FD86
:102EE000EEE705F05CF8EBE70020EAE7F80C0020DD
:102EF00008B50128084B83F82400084B06D00228A7
:102F000008D040F6DC613E20FDF72AFB0322C3F81F
:102F1000002508BD0422FAE7F80C002000A00850A4
:102F200008B5144B93F84A30D90720D59A070ED527
:102F3000114BD3F8002442F00102C3F80024D3F867
:102F4000200500F0F600023818BF012008BD5B071D
:102F50000DD5094B094AC3F80821A3F5A043D3F8BE
:102F6000403123B140F28A713E20FDF7F9FA012089
:102F7000ECE700BFF80C002000A008500B00008018
:102F800008B570B9104B28311846D9600F4900F0C8
:102F900013FE0130012816D940F66D013E20FDF7E1
:102FA000DFFA01280CD1084B29311846D9600749AE
:102FB00000F008FE0130012805D940F67701EDE761
:102FC00040F67B01EAE708BD6C00002010200100FC
:102FD00008B50C4B9B78012B09D100F0F9FD0130AD
:102FE00001280ED940F604213E20FDF7B9FA022B44
:102FF00007D100F0F3FD0130012802D940F60A2183
:10300000F2E708BDF80C00200A4B40F409000A4A18
:103010001B8D40F04000B3F5166F36BFA3F6381392
:10302000A3F5166343F48073C2F80837C2F840056D
:10303000704700BFF80C002000A0085037B50C46C0
:103040000546FFF755FF20462146FFF7DDFF104AF2
:1030500001AB284692F9252000F048FD9DF80500B7
:1030600000F0C2FD20B140F255713E20FDF778FA24
:103070009DF9040000F086FC064B40F20312C3F8F1
:10308000442E40F25B62C3F8482E03B030BD00BF4F
:10309000F80C002000A008502DE9F8430C46174614
:1030A0008046434D00283FD10123AB702B78012B84
:1030B00023D1404B33F812304FF47A7203F5FA7390
:1030C000B3FBF2F3CC1A2B6B3B4E1C443B4BC6F8C4
:1030D0004045C6F8C0312B78002B57D195F84A30BF
:1030E00043F0020385F84A30FFF71AFF054600282F
:1030F00053D100252846BDE8F883104695F82610E0
:10310000FFF79CFF2E4B4FF47A7253F8273003F5EC
:10311000FA73B3FBF2F3E41A2B78002BD3D1294BCB
:10312000264AC3F80021CEE701282AD10223254EE2
:10313000AB702B78012B06D1D6F8003443F0100386
:10314000C6F80034BFE795F826901046FFF7D0FE8A
:10315000293C4846FFF758FFD6F8003443F01003E7
:10316000C6F8003440F20313C6F8443E40F25B63F5
:10317000C6F8483E2B78002BA5D1104BC6F8043179
:10318000A1E74FF413613E20FDF7EAF9012BABD123
:1031900095F84A3043F00403A4E70123F364D6F81A
:1031A0004C35A342A5DA21464046FFF7E9FEA1E7E8
:1031B000F80C002090200100005008500B00008007
:1031C0008420010000A0085008B5602200210348B7
:1031D00005F081F8BDE80840FFF756BEF80C002066
:1031E000024B0344187D00F5166070471020010063
:1031F0000A4B93F83C20D3E90C30C01A084B03EB80
:103200008203DB6BC01A074B53F822304FF47A72FB
:1032100003F2F313B3FBF2F3C01A7047F80C00206B
:1032200010200100782001000F4A08B592F83C10E8
:10323000012906D0022914D040F2C6213E20FDF714
:103240008FF940F61C40D2E90C239B1A074A02EB87
:103250008102D26B9B1A4FF47A72B0FBF2F01844E1
:1032600008BD4FF4AF60EEE7F80C0020102001001D
:10327000FF2808B504D940F2E5213E20FDF770F99A
:10328000124B0129A3F8480004D0022919D040F2BA
:103290004131F2E7002343F4801340F000700C4A00
:1032A00043F4847340F44030C2F8203EC2F8280E44
:1032B000D2F8203503F0F703032B05D14FF45671F4
:1032C000DBE74FF08073E6E708BD00BFF80C002095
:1032D00000A00850F8B5244E4FF48067C6F89070EF
:1032E000BFF34F8FBFF36F8F204C0121204DC4F8E7
:1032F000A410FFF7B9FD0323C4F8401E85F824107D
:10330000C4F800354FF40023C4F80034194B187C7E
:1033100000F07CFC03F0B0FA174B184AC4F83833BD
:10332000174BC3F8C820013AC3F8C42040F6FE7218
:10333000144BC4F81433144BC3F804250023AB8793
:10334000AB6385F84A3001F0CCFF4FF480732863FB
:10335000C6F89071C4F888342B6E376103B1984772
:10336000BDE8F84000F01CBC00E100E000A00850FF
:10337000F80C00206C000020030000800600008094
:10338000005008500100008000200850014B83F8D5
:1033900025007047F80C0020020E034B0002C3F812
:1033A000342EC3F82C0E704700A00850044B054A79
:1033B000034482F826001B7D03F5166313857047CE
:1033C00010200100F80C002010B504460068FFF73B
:1033D000E3FF094B6268C3F84C2E207AFFF7E6FF43
:1033E000617A6089FFF744FF607AFFF781FD227BF5
:1033F000024B83F8252010BD00A00850F80C0020D7
:103400002DE9F041324C06460F4694F84A30DA076F
:1034100004D440F6BE013E20FDF7A2F82D4D43F046
:103420000203D5F8002442F00102C5F8002484F814
:103430004A3028BB012394F826103846A370FFF7C2
:10344000FDFDA378012B02D040F6CA01E3E7224A32
:10345000D3642B60204B3046D3F84C552946FFF7F8
:103460008FFD236BED1A7EBB1C4B4FF47A7253F821
:10347000273003F5FA73B3FBF2F35819BDE8F08176
:103480000128E7D1022394F826800846A370FFF7AD
:103490002FFD4046FFF7B8FDD5F8003443F0100388
:1034A000C5F8003440F20313C5F8443E40F25B63B4
:1034B000C5F8483EA378022B02D040F6D201AAE715
:1034C000054BDE646E60C5E705F12900D6E700BF55
:1034D000F80C002000A00850005008508420010083
:1034E00008B5FFF7D9FD58B9064B0122C3F84005CE
:1034F00003F5A04302201A61BDE80840FEF7ECBBCB
:1035000008BD00BF0050085013B5264B4FF4806132
:10351000254A4FF0FF30D3F88844C3F89004C2F82E
:1035200090114FF40022214904F48074C3F8002460
:10353000002281F84A201E49C1F84025C3F808211D
:10354000C3F80021C3F80421D3F82015C9B2D1B1C2
:103550008DF80700C3F8202201221A619DF8072088
:1035600012B1D3F820223AB19DF807305BB940F68A
:10357000F2113E20FCF7F4FF9DF80720013AD2B289
:103580008DF80720EAE7FFF723FD06490023C1F87D
:103590002032FFF779FC1CB14FF48073C1F88834F6
:1035A00002B010BD00A0085000E100E0F80C0020BF
:1035B0000050085070B50024234D244EC5F84845EE
:1035C000C5F84445C5F84045C5F84C45FFF79CFF94
:1035D00000F0ECFAC5F8C441C6F80841C6F800414D
:1035E000C6F80441C5F8C840C5F8C44003F05CF90A
:1035F000174B40F6FE72C6F83843C6F81443C5F8B8
:10360000C041C3F808254FF48062124B1C77C3E910
:103610000D44114BC5F84845C5F84445C5F840452B
:10362000C5F84C45C5F84841C5F84441C5F8404186
:10363000C5F84C41C3F89020BFF34F8FBFF36F8F95
:10364000C3F8902170BD00BF0050085000A0085082
:1036500000200850F80C002000E100E0014BC3F806
:103660004C0E704700A0085010B50FC8014C84E8FC
:103670000F0010BD5C0D002008B50B4BC3F8D00E39
:103680000A4B93F84A20586442F0010283F84A201A
:10369000FFF746FC30B9FFF737FF0320BDE80840CD
:1036A000FEF71ABB08BD00BF00A00850F80C0020B0
:1036B00010B50E4C0346022294F83D0022770128F3
:1036C00094F83C1094F824204FF096000BD100F0B1
:1036D000D7F9074A00232062C2F84431A36B0344A0
:1036E000C2F8443510BD00F0E5F9F2E7F80C00200F
:1036F00000500850044BC3F8940ED3F8002442F055
:103700004002C3F80024704700A00850054BD3F8CE
:10371000002422F04002C3F800240022C3F8942EB3
:10372000704700BF00A008500022044B90421A705E
:10373000D97014BF022201225A707047F80C002081
:103740002DE9F0470123824C824DB4F84870EB64B8
:10375000D5F84C25236BA2EB030801F0C5FBC4F898
:103760005880C4E91401FFF733FC7B4A0023C2F8F8
:103770000831C2F80031C2F80431D2F8001421F047
:103780001D01C2F8001484F84A30237F23B1D5F814
:103790004431003B18BF0123A17801290AD1D2F896
:1037A0001852002D43D16C4BD3F82032ABB145F009
:1037B000100512E0022938D1674AD2F81852D2F81F
:1037C0000C2E003D18BF0125D6074FEA450558BF0E
:1037D00045F004052BB345F00105FFF745FBE8066E
:1037E000A37803D5012B08BF45F02005594A94F86A
:1037F0000190D2F84815A163D2F8442584F83D30F1
:1038000094F82430626384F83C30B9F1000F10D191
:10381000FFF73AFB84F81C90E9077DD5636E984763
:1038200044E015F00B0FD8D1BDE70025BBE7082514
:10383000D3E715F0110F0ED1B9F1010A23792678DB
:1038400018BF4FF0010A012B43D0022B56D02BB1E9
:103850004FF4446145E0FFF757FEDDE796215046FF
:10386000FFF71AFB0146FFF70FFB012E50D1B9F10C
:10387000010F14BF272333239844884543D90220DE
:10388000FEF72AFA344B30461E61AA0746D5636C10
:1038900001465B78BB42A36E88BF45F00405C5F3C3
:1038A000800585F0010505F001009847A378022BFB
:1038B0000DD1237F5BB1022B264A3DD1A36B216A38
:1038C0000B44C2F84435234B244AC3F8C421BDE855
:1038D000F0872348FFF778FD94F83D3023B940F690
:1038E000B5013E20FCF73CFE012B04D1FFF79CFC08
:1038F000A369C118B7E7FFF77BFCF9E71848FFF7A2
:1039000063FDA169AFE7134B00222670C3F8402185
:10391000E2785046FFF7E4FD0020B6E715F0280FE7
:1039200005F0200104D0B1FA81F1E36E4909BCE74A
:10393000EB06BBD5236F72E7012B02D040F69F51F7
:10394000CFE7236AA16B8B42BBD84FF45A61C8E71B
:10395000F80C00200050085000A00850090000801A
:10396000000D0020024B03EB8003D86B704700BFB3
:1039700010200100024B03EB8003986C704700BFDE
:10398000102001002E3008B5362854D8DFE800F0AA
:103990005053535353534D53535353535353535300
:1039A00053534B53535353535853585349534753FB
:1039B00045534353413F3D3B39373533312F2D2B51
:1039C00029272523215A1C003F231F4AC2F81037FC
:1039D00008BD3323F9E72D23F7E72823F5E7232351
:1039E000F3E71F23F1E71B23EFE71823EDE7152388
:1039F000EBE71323E9E71123E7E70F23E5E70D23BF
:103A0000E3E70B23E1E70A23DFE70923DDE70823E8
:103A1000DBE70723D9E70623D7E70523D5E7042308
:103A2000D3E70323D1E70123CFE74FF49873CCE723
:103A30004FF48873C9E74FF486713F20FCF790FD7F
:103A40000223C2E73923C0E700A00850054B4FF41A
:103A50007A72023833F8113003F2E733B3FBF2F332
:103A60001844704770200100044B4FF47A7233F809
:103A70001130B3FBF2F3013318447047702001009A
:103A800038B51D460A4B33F8114003EB8203053568
:103A90009B681C444FF47A7304F6B73403FB00446C
:103AA0001046B4FBF3F42544FFF75CFF284438BD0F
:103AB0007020010070B5064608461546FFF75AFF0C
:103AC000094B03EB85039C684FF47A7304F6B73413
:103AD00003FB0644241A2846B4FBF3F4FFF742FF25
:103AE0000530204470BD00BF702001002DE9F04F6B
:103AF000264C87B0074698460D46164601F0BAFE9A
:103B000023788146BB4211D16378AB420ED194F940
:103B10000230B3420AD1E378834207D1A388A8F8E0
:103B2000003094F9060007B0BDE8F08F7B1EDBB2D1
:103B3000032B0DD8164A294612F803A00DF11703DE
:103B40003246504601F09CFE38B14121A92002E0E6
:103B500040F2FE410620FCF703FD039028469DF944
:103B600017B0FFF73DFB039A0346414658460092C3
:103B7000524600F03FF8B8F80030A071A3802770DB
:103B80006570A67084F80390CBE700BF800000202A
:103B900096200100014B1B681B681847AC000020F1
:103BA000014B1B685B681847AC000020014B1B6889
:103BB0009B681847AC000020014B1B681B69184725
:103BC000AC000020014B1B685B691847AC0000206B
:103BD000014B1B689B691847AC000020014B1B6818
:103BE000DB691847AC000020014B1B689B6A184733
:103BF000AC00002030B4044C9DF8085024680295B5
:103C0000E468A44630BC6047AC00002000220D49A7
:103C1000134610B540FA02F4E40744BFCA545C1CD2
:103C200002F1010248BFE3B2042AF3D1054AFF249E
:103C3000D118032B01D9107110BD013301F8014BCC
:103C4000DBB2F6E7C014002008B5074801F05AF8C7
:103C5000054800F03FF801F009FD01F003FC00F019
:103C6000A7FB012008BD00BFBC0E002008B501F075
:103C700025F801F0D1FC01F019FCBDE8084000F086
:103C8000B3BB01F035BD01F06FB810B5EFF3108490
:103C900072B601F069F804B962B610BD01F076B8E9
:103CA00001F08EBD01F044BD01F054BD01F054BDE2
:103CB00001F058BD01F07ABD08B5054B1A781AB16C
:103CC0002721032002F0B8FB5860197008BD00BF1F
:103CD000C40E0020024B986000221A705A60704790
:103CE000C40E0020F7B51E4C2378012BDAB204D0A5
:103CF000022A2ED0012003B0F0BD0DF1070160684B
:103D000000F07EFB65686B7DDB071CD5AB7F042B69
:103D100019D001F083F80646A8B101F085F82B69A7
:103D2000D5E900279A18B36847F100070A332CBF7A
:103D3000012500251B1845EB01059342BD4102D327
:103D4000606800F02DFC0023636023709DF807007D
:103D5000D1E70DF10701606800F05CFBF3E700BFFD
:103D6000C40E002010B5837F8BB9034601F1180201
:103D700051F8044B914243F8044BF9D10124847764
:103D80002146FFF799FF00F0E1FF204610BD00201B
:103D9000FCE773B505460C4601F040F80646AB7FDC
:103DA000012B1AD021462B4604F1180251F8040BBE
:103DB000914243F8040BF9D101230DF10701284684
:103DC000AB7700F01DFB16B1012002B070BD044BB3
:103DD0000421986804F055F9F6E70020F5E700BFE4
:103DE000C40E002010B5FFF7D4FF044620B1034BEA
:103DF0000621986804F045F9204610BDC40E002045
:103E0000024B0621986804F03CB900BFC40E0020A4
:103E100010B5EFF3108472B601F000F818B9C9219B
:103E2000032002F009FBFFF7EBFF04B962B610BDF7
:103E300010B504460221FFF73FFF00F087FFA07F87
:103E4000B0FA80F0400910BD38B50446A37F03B92D
:103E500038BDA37F032B02D0A37F042B0FD1EFF338
:103E6000108572B6204600F0F0FA05B962B6A37F5D
:103E7000002BEDD040F20D11032002F0DDFAA37FFC
:103E8000012B02D14FF48971F6E704F098F9DDE7D0
:103E900010B50446FFF7CCFF20B92046BDE810401E
:103EA000FFF7D2BF10BD13B50DF1070100F0B2FA54
:103EB000044600F0B3FF20B940F22F11032002F0B6
:103EC000BBFA204602B010BDF8B504460F4600F01C
:103ED000ABFF0025A4682418384641F100062246AD
:103EE000334600F001FBA04271EB060309D3001B2F
:103EF0006FF0010361EB0601834275EB010102D310
:103F0000F8BD2846FCE74FF0FF30F9E710B5EFF3B6
:103F1000108472B6FFF7D8FF04B962B610BD2DE960
:103F2000F04185681746002306464A190C465B4156
:103F300013B10020BDE8F08100F076FF2A18384662
:103F400041F1000314EB020843F1000500F0CCFA44
:103F50004045A941EDD301F0CBFB00F075FAB36801
:103F6000012037752344B360E4E710B5EFF3108404
:103F700072B6FFF7D4FF04B962B610BD837F012B80
:103F800001D100F08DBB00207047D0E900017047DF
:103F90000069704700F048BF10B5EFF3108472B6A7
:103FA00000F042FF04B962B610BD80687047007D22
:103FB0007047F8B50369044623B140F2D5110320D8
:103FC00002F03AFA01F094FB05460E4602F056F96B
:103FD00070B36435D4E9003246F10001AB4272EBB4
:103FE000010001D22B460A46C4E90032EFF31085E6
:103FF00072B600F013FF064698B100F015FFB368E3
:104000000B332CBF012200221B18D4E9006042EBC5
:104010000101B34271EB00023CBF33460146C4E9E3
:10402000003105B962B62046BDE8F84000F0D2BACA
:1040300002F044F9074600F00DFFB84238BF384699
:10404000963546F100024319D4E9000142F100021D
:10405000834272EB0105C7D20346C4E7042300F193
:10406000180283770023037643768376C376044B66
:10407000196811B91A605A60704759680A60FAE7FE
:10408000D00E00202DE9F843DFF86C8000240646AE
:104090000F46D8F80830204633B950B3174B18787C
:1040A000BDE8F84302F070BB53E90612D3F8009064
:1040B000B14272EB07051AD253F8085C6D1842F151
:1040C0000002B542BA4112D24CB122681268226095
:1040D000A3F11800FFF7C2FF01204B46DCE7D8F838
:1040E0000820002AF4D01268C8F80820F0E71C461F
:1040F000F3E7BDE8F88300BFD00E0020F5000020F4
:104100002DE9F047304B4FF0000E05469446C2F8BB
:1041100000E09868002855D018380746BA69002A88
:1041200050D0D0E9009352E906684E4578EB03047D
:1041300003D2BF219F2002F07FF9A94573EB010450
:104140000BD2046914EB090443F10003A542A14614
:1041500071EB03043CBFA9460B46AE4278EB010469
:104160000BD252F8084CA41948F10008A542264683
:1041700071EB08043CBF2E46884684680A344EF131
:10418000000A14EB090443EB0A03A64278EB03038D
:1041900018D2047D12F8043C9C420DD08CBF012340
:1041A00000232BB107F11803A2F11800CCF800305E
:1041B000BF693FB1183FB1E79388848B1B1BC3F3E2
:1041C000C033EEE7BDE8F087D00E00202DE9F04FB8
:1041D00085B082834E4A04460091D2F808C094F814
:1041E0001580D0E90030BCF1000F40D0ACF11801CF
:1041F000002708F00109D1E90026934270EB06057B
:104200006DD3B9F1000F2CD0277D0D7DAF4228D39F
:104210008D68AD1846F1000615F10A0A46F1000E48
:10422000534570EB0E0219D22269D21840F10007F3
:1042300092457EEB070B01D252467746AA42B74120
:104240000FD220460024FFF709FF324B187802F006
:104250009BFA009B1C7005B0BDE8F08F1A4607461C
:10426000ECE78A690F4622B1A2F11801C3E7624662
:10427000674618F0010F37D0A168C91840F1000B4C
:1042800001918AB3019DD2E9001615F10A0E4BF196
:1042900000058E45B54127D394F814E0157DAE4551
:1042A00019D395686D1846F1000615F10A0946F113
:1042B00000084B4570EB080113D22169C91840F181
:1042C000000E894578EB0E0A01D24946C646A9423E
:1042D0007EEB060EB5D3926932B1183AD2E70A46A0
:1042E000C7E719468646F2E704F118035FB1BA69D9
:1042F000A261BB6103AA00200021FFF701FF231A7E
:104300005C425C41A5E7024AC4F818C09360F1E73B
:10431000D00E0020F5000020F8B5244C0023E36007
:10432000EFF3108272B621686360E160236002B926
:1043300062B60026E36803B9F8BD9A79A3F11800C4
:10434000032A07D11A6801219E7153F80C3CE260E0
:104350009847EFE7196851B1A1F118030746002209
:104360009D7F042D09D09B7F032B02D1B2B9E16060
:1043700017E063219F2002F05FF8B0F81CC09D8B0E
:10438000A5EB0C052D049D6944BF07F118021846E2
:10439000002DEBD01F46A5F11803E1E713681B6859
:1043A0001360C36802218677D2E700BFD00E0020D9
:1043B00010B50A4C2378FF2B04D04FF484719F2052
:1043C00002F03AF8064802F0B5F9064B00222070D8
:1043D0009A601A605A601A8210BD00BFF500002072
:1043E00019430000D00E002010B5044C2078FF289F
:1043F00003D002F0B9F9FF23237010BDF5000020AF
:10440000034B1A8A10B4541C1C8210BCDEE600BF99
:10441000D00E002037B504460D4601AA0021002029
:10442000FFF76EFE231A04F1180158425841287014
:10443000044803F04CFE10B100230120A37703B021
:1044400030BD00BFD80E00201CE638B5114B044625
:1044500000F118011A68B2B11A6800209AB19142AD
:104460000ED108B1A56905601D68A94204BF126894
:104470001A605A68914200D158600023A37707E080
:1044800010461268EAE7044803F021FE0028F4D140
:1044900038BD00BFD00E0020DC0E002037B5054629
:1044A0000C46FFF7EFFD01AA28462146FFF728FE3C
:1044B00028B100F11803034A536103B030BD03462D
:1044C000F9E700BFD00E002010B5064C616904F179
:1044D000080003F0FCFD18B160690023183863611F
:1044E00010BD00BFD00E00209C46144BF0B59D6857
:1044F000FDB115F8043C183D834218D812F10A04A6
:10450000D5E900364CF10001A34276EB01070BD24E
:104510002F69FF1846F10006A7428E4107D3B4F178
:104520000A0041F1FF31F0BD1C463146F7E7AD69A5
:10453000DEE74FF0FF300146F5E700BFD00E002068
:1045400008B5837F022B1CD1437D13F0020302D0F8
:104550000023837708BD0322037643768376C376F0
:104560000D4B827700F11802196839B91A605A6048
:104570000A4B1878BDE8084002F006B959680A608D
:10458000F5E7837F012BE5D0837F042BE2D04FF446
:10459000FB719F2001F050FFD00E0020F50000209D
:1045A00010B500F118010446084803F090FD20B949
:1045B0004FF400719F2001F03FFF2046FFF74EFDB2
:1045C000034BBDE81040187802F0DEB8D80E00208A
:1045D000F50000202DE9F74FD0F810E0BEF1000FF4
:1045E00004D040F21F219F2001F026FF836890F83D
:1045F00014800193D0E90014EFF3108972B6274BB1
:10460000B3F810C09B686BB1019D183B0A35D3E924
:1046100000264EF1000A6D1844EB0A0A95427AEB27
:10462000060707D2B9F1000F35D0C0E9001403B076
:10463000BDE8F08F8A4276EB04070CD31F69BF18E0
:1046400046F1000BAF427BEB0A0B34BF012500257E
:1046500075B99B69D7E712F10A0A9D6846F1000710
:1046600015EB0A0547F10007A94274EB0707ECE7D1
:104670001D7DA84509D0ECD912F10A019D6846F1CB
:104680000004691844F10004E3E79D8BA5EB0C05D9
:104690002D04DED5F0E762B6C7E700BFD00E0020DC
:1046A000F7B50C460DF107010646878BFFF7B2FE02
:1046B00020B940F24A219F2001F0BEFE0FCC3546C2
:1046C0000FC594E803003A4685E8030030460DF133
:1046D0000701FFF77BFD012003B0F0BD034B187805
:1046E00000F0FD00431E584258417047E80E00207C
:1046F00038B5FFF7E9FE002580B1094CC4E9010592
:10470000E56000F0E7FE6068022329468377C3680E
:104710009847D4E90401FFF797FE012038BD00BF98
:10472000E80E0020024B0521986903F0AABC00BFE7
:10473000E80E0020042938B5054613D005D8023903
:10474000012915D940F2C91109E00529FAD1FFF76D
:10475000C5FF10B1114C607F60B140F2BF11B020B5
:1047600001F06AFEFFF7BEFA10B10C4B01221A7776
:10477000002012E0236A98470123206B6377084AE0
:10478000D4E90A31323B41F1FF31181841F10001FF
:1047900000F07EFF034B02202B6038BDE80E0020A6
:1047A00025470000DD4A0000064B586810B520B9C7
:1047B00040F28D21B02001F03FFEC3680621BDE824
:1047C00010401847E80E00202DE9F84F2B4D814688
:1047D0006B7F2E6B002B3AD1FFF780FF074618B195
:1047E000AB8E9E4238BF1E4600F082FF0446801901
:1047F0008B4641F10001FFF751FE68B3D0E9008A12
:10480000B0457AF1000324D3B8EB06006AF1000149
:10481000844223465A467BEB01043CBF03460A46CA
:104820009B1942F10002C5E90432154A00F030FF3D
:104830004046514600F08EFEEFB1A98E114B124A50
:104840008E4218BF1346C9F80030BDE8F88F002724
:10485000CAE700200146DBE76B7F33B12B78023BD0
:10486000012B02D82B6A0120984700236B7700F0B8
:1048700072FE064BE7E7044BE5E700BFE80E0020B9
:1048800025470000574900009148000029490000D1
:10489000042938B5044624D007D80239012938D96B
:1048A00040F26B11B02001F0C7FD0529F8D100F0EE
:1048B00053FE194D01F0D6FCFFF710FFD8B16B7F06
:1048C000CBB900F015FFAA8E2B6B9B1A134AC5E9D2
:1048D0000A01181841F1000100F0DAFE104B2360C4
:1048E00007E0FFF7FFF9A0B100F0F2FE2046FFF766
:1048F0006BFF022038BD00F0FBFE2B6B074A323BFA
:1049000065EB0505181845EB010100F0C1FE054BEC
:10491000E5E70020EEE700BFE80E00202547000095
:1049200035470000DD4A0000032910B5044606D8CB
:1049300001290ED840F21711B02001F07DFD0429A5
:10494000F8D1FFF7CFF920B12046FFF73DFF022055
:1049500010BD0020FCE7042938B5054613D005D862
:104960000239012929D940F23B1109E00529FAD180
:10497000FFF7B4FE10B1124C607F70B140F23311FA
:10498000B02001F059FDFFF7ADF9B0B100F0A0FE85
:104990002846FFF719FF022038BD236A98470123F4
:1049A000084A6377236BD4E90401C01A61F100015E
:1049B00000F06EFE044B2B60EDE70020ECE700BF3B
:1049C000E80E002025470000914800002DE9F0473F
:1049D00080468A4691463A4C002B5ED0D3E9005679
:1049E000854276EB01033CBF0E460546314628461C
:1049F000C4E9045600F0AEFDA38EB5EB080803F140
:104A0000640366EB0A0A43454FF0000373EB0A03A5
:104A100021DA637F43B12378023B012B02D8236A5A
:104A20000120984700236377FFF758FE0746236B62
:104A300003F5E17398457AF1000A15DA6FB1A08E9B
:104A4000204A281A66F1000100F022FE1E4BC9F828
:104A50000030BDE8F0870027E9E71A4A28463146CA
:104A600000F016FE194BF2E700F077FD01F000FCB4
:104A7000A38E206B4FB1834207D9E81A114A66F121
:104A8000000100F005FE124BE1E7281A0D4A66F11D
:104A9000000100F0FDFD0F4BD9E7637F33B12378B0
:104AA000023B012B02D8236A012098470023637739
:104AB00000F053FD01F0DCFB00F04DFD064BC6E7B6
:104AC000E80E0020254700006D4B0000ED4B000074
:104AD000574900009148000029490000023970B58B
:104AE0000446032938D8DFE801F00502070E1D4B04
:104AF00000221A77002012E0FFF7F4F80028F9D01E
:104B0000184B0122F5E700F029FDB0B1154B1B7FD2
:104B100033B9FFF7EDFD18B1134B2360022070BDD0
:104B200000F0E6FD06460D46FFF7B8FC22460346B8
:104B300029463046FFF74AFFF0E700200021FFF743
:104B4000ADFC08B1FFF72CFD00F007FD01F090FB74
:104B50002046FFF739FEE1E740F2A511B02001F051
:104B60006BFC00BFE80E0020454C0000042970B526
:104B7000044613D005D8023901292ED94FF40F71FC
:104B800009E00529FAD1FFF7A9FD10B1144D687F9E
:104B9000B8B14FF40D71B02001F04EFCFFF7A2F850
:104BA000D8B100F095FD00F0A3FD06460D46FFF7D5
:104BB00075FC2246034629463046FFF707FF0220D0
:104BC00070BD2B6A98470123064A6B77D5E904012B
:104BD00000F05EFD044B2360F1E70020F0E700BF2A
:104BE000E80E002025470000ED4B0000042970B5B9
:104BF000044611D007D8023901291FD940F21721E4
:104C0000B02001F019FC0529F8D1FFF771FD40B182
:104C10000B4B2360022070BDFFF764F870B100F009
:104C200057FD00F065FD06460D46FFF737FC2246AE
:104C3000034629463046FFF7C9FEEBE70020EAE7C6
:104C4000454C000002392DE9F041064604292ED8D2
:104C5000DFE801F003090B2D0E00174A1378003B23
:104C600018BF0123537700201FE0FFF73BF8FAE756
:104C7000DFF8448000F044FC00F03AFD0C460546A5
:104C8000FFF70CFC0746D8F80400FFF759FC002397
:104C900000222846C8F8043000232146C8E904232E
:104CA0003B463246FFF792FE0220BDE8F08140F21B
:104CB000EF11B02001F0C0FBE80E002010B5EFF3BB
:104CC000108472B60B4B0C4A9B691B6893420DD043
:104CD0000A4A93420AD00A4A934207D000F03DFCA8
:104CE00001F0C6FA00F037FC00F0F2FC04B962B63D
:104CF00010BD00BFE80E0020294900005749000000
:104D000091480000054B10B5054C03600023A061DD
:104D1000237001F0D3FA3230206310BD294900001E
:104D2000E80E002008B5074B9A691168064A9142BF
:104D300004D040F27221B02001F07EFB32301863C3
:104D400008BD00BFE80E00202949000010B5EFF3B0
:104D5000108472B6034B0421986903F092F904B9E8
:104D600062B610BDE80E002008B5064B5B6823B99B
:104D700040F29321B02001F05FFB034ABDE80840F8
:104D800000F086BCE80E0020A947000008B5064BDD
:104D90005B6823B940F29921B02001F04DFBBDE8DA
:104DA000084000F095BC00BFE80E002008B5054B98
:104DB0005A6822B940F29F21B02001F03DFB986073
:104DC00008BD00BFE80E002008B5054B5A6822B99F
:104DD00040F2A521B02001F02FFBD86008BD00BF34
:104DE000E80E0020054BDB6810B523B940F2AB217B
:104DF000B02001F021FBBDE810401847E80E00206C
:104E0000054B9B6810B523B940F2B121B02001F0E9
:104E100013FBBDE810401847E80E0020014B58680E
:104E2000704700BFE80E002008B5054B5A6822B94C
:104E30004FF42F71B02001F0FFFAD3E9040108BD4F
:104E4000E80E0020024B323118701A6299867047C2
:104E5000E80E002008B5FFF741FC08B1014B988E21
:104E600008BD00BFE80E00200028ADBF00F1604083
:104E700000F00F00044B00F56140B4BF185C90F8DF
:104E800000034009704700BF14ED00E0064B1B68AB
:104E900010B51BB97621452001F0CEFA1A6A05211A
:104EA000586ABDE810401047200F0020064B1B68D1
:104EB00010B51BB97021452001F0BEFA1A6A042111
:104EC000586ABDE810401047200F0020FFF76EBF62
:104ED000FFF77ABF034800214022C0E900110830E3
:104EE00003F0F9B9200F0020FEF7CBBE704708B5DC
:104EF000074B1A681AB9C121452001F09DFA0549EE
:104F0000D1600022C3E90022BDE80840FEF778BF67
:104F1000200F0020455200001F2801D900207047B3
:104F2000044B03EB4000037A002BF7D000230372FD
:104F300001207047200F0020F8B50E4A0C460023D0
:104F400002EB4306357A05F0FF0175B9DDB2FF27A4
:104F50003772282673431A44C2E91A0406482022ED
:104F6000184403F0B8F92846F8BD0133202BE7D1E7
:104F70001D46F8E7200F0020680F00201F2810B5FD
:104F800001D9002010BD064B03EB4004247A002C0D
:104F9000F7D0282404FB0030C0E91A120120F1E701
:104FA000200F002030B587B00C460546182200219E
:104FB000684603F090F9237853BBD4E904310A3BE7
:104FC0006268207A41F1FF310A328DF814000292B2
:104FD0009DF81520154822F003020390CDE9003119
:104FE000637A6946C3F340035B0043F00103134354
:104FF0008DF815300E4B5868C0F3080088B1103892
:10500000FFF732FF68B92846FEF7C3FE07B030BD90
:10501000FEF737FE226910F10A03049241F1000104
:10502000CDE72846FEF79EFEF0E700BF45520000A0
:1050300000ED00E01F2830B411D80A4A02EB40040A
:10504000257A65B14B7A4832C3F3800383F00103BC
:105050006372282330BC03FB0020FFF7A3BF0020AE
:1050600030BC7047200F002008B50A4B0246586834
:10507000C0F3080040B11038FFF7F6FE20B9104623
:10508000BDE80840FEF70FBF1046BDE80840FEF738
:10509000CFBE00BF00ED00E0024B282202FB003033
:1050A000FFF7E2BF680F002010B5037886B0044612
:1050B00023B14FF4AA71452001F0BEF90593416870
:1050C000CDE90333D0E90432007A0A310A3B8DF886
:1050D0001400684642F1FF320291CDE90032FEF73A
:1050E00068FF009B019A01200A3342F10002C4E9E3
:1050F000043206B010BD4FF4BA71452008B501F076
:105100009BF908B5094B0A46596821B940F2791153
:10511000452001F091F901461868FEF700FF18B12B
:10512000FEF7BCFD002008BD0220FCE7200F002098
:10513000194B70B50446586886B0C0F3080010B922
:10514000002006B070BD1038FFF78EFE0346002821
:10515000F6D1C3F307230E7A4D6823F003030A3513
:10516000CDE90400D1E904208DF814600A3A0B4E11
:10517000029540F1FF300396CDE900204A7A20469F
:105180006946C2F34002520042F0010213438DF817
:105190001530FEF7F3FED4E700ED00E045520000C5
:1051A0001F280AD8064B03EB4002127A2AB1483373
:1051B000282202FB0030FFF7BBBF0020704700BF72
:1051C000200F0020034B5A6812B11868FEF7EFBE9B
:1051D00002207047200F0020024B01461868FEF79E
:1051E00073BE00BF200F0020FEF72EBE1F2808B59B
:1051F00004D940F2E511452001F01EF9074B03EBFD
:105200004002127A12B94FF4F371F4E748332822BE
:1052100002FB0030BDE80840FEF716BE200F00205C
:1052200008B5074B5B6823B94FF4F671452001F0D0
:1052300003F9FEF7AFFE0A3041F1000108BD00BFDF
:10524000200F00202DE9F0411C4F05461C4B0E4657
:1052500007F14804041BE4105C43E4B2620007EB6E
:105260004404237A19BB3B681BB18E21452001F011
:10527000E3F87B680BB18F21F8E707F108031344CB
:10528000C7E900030F48FFF791FD0F48FFF79CFDAA
:10529000FFF7C6FF637A80464BB1FEF701FDA8EB2E
:1052A0000000C7F8480500F035FA0028FBD02B6A4B
:1052B0003146686ABDE8F041184700BF200F002062
:1052C000CDCCCCCCAD4E00008D4E000010B50446C8
:1052D000FFF7A6FF201841F10001FEF7D4FC0120E2
:1052E00010BD024BD3F84805704700BF200F0020C7
:1052F000FEF7DABC7047FEF7D5BCFEF7D7BCFEF769
:10530000D7BC08B5FFF79EFD002008BD70B50B782F
:1053100086B023B140F23121452001F08DF805938C
:105320000E7A4D68049228228DF814600A35124EC8
:1053300002950396D1E904340A3B44F1FF34CDE9E8
:1053400000344B7A4FF00001C3F34004C3F38003F1
:1053500064F3410183F001038DF81510074901EB57
:105360004004637201F14803694602FB0030FEF716
:10537000F9FC06B070BD00BF45520000200F0020B0
:105380007FB5FEF77EFC002305930B4B039340F2A1
:105390001E2302934FF0FF33CDE900016946074811
:1053A0000493FEF7F6FC18B9CB21432001F044F832
:1053B00007B05DF804FB00BFC1530000701400206B
:1053C00038B5062937D8DFE801F0043833363636E9
:1053D000170002F041FEFEF7DDFD044617480D46BA
:1053E000FEF7E3FD1E3C45F1FF312018BDE83840D3
:1053F00041F10001FEF747BC00F040FF38B10F4B10
:10540000002283F82020BDE83840FEF7F9BC02F006
:1054100025FE08B902F020FE00224FF40071074873
:10542000FEF77DFD0028D6D1EA21432001F004F8E3
:10543000BDE83840A4E7F921F7E738BD7014002033
:1054400010B5074C94F8203043B900F017FF28B985
:10545000012384F82030BDE8104091E710BD00BF63
:10546000701400204FF000430D4A0E480021C2F88E
:105470008030A2F58022C2F88031012302F5783213
:10548000C2F80435A2F58022C2F804352022064B6A
:1054900080F820101B68D3F81835436202F01BBF58
:1054A00000400C50701400206C0E00200023084AAD
:1054B000C2F88030A2F58022C2F88031012302F5C3
:1054C0007832C2F80835A2F58022C2F80835704754
:1054D00000400C5008B506F083FD074AD2F8583753
:1054E00043F00103C2F858370122044B1B68C3F88C
:1054F0001825BDE80840A3E700200E506C0E0020E0
:1055000008B506F073FD0E4AD2F8583723F00103B0
:10551000C2F858370B4B0C4A1B68526AC3F818255F
:1055200001220A4B5A604FF0FF32C3F808232022B1
:10553000074BC3F89021BDE8084000F0C9B800BF90
:1055400000200E506C0E00207014002000500850F7
:1055500000E100E0704770477047704708B500F001
:105560008DFEB0B90D4BD3F800314BB90C4A936A9C
:105570000133312B93620BD99C21432000F05CFF57
:1055800002F06CFD08B1A021F7E702F063FD0120F5
:1055900008BD034B00229A62F9E700BF00E01050FB
:1055A000701400204CE700BF1848202208B5C0F84E
:1055B0009020BFF34F8FBFF36F8F154BC0F8902132
:1055C000D3F8041521F00301C3F80415D3F8081526
:1055D00041F00301C3F8081592FAA2F1B1FA81F182
:1055E000092904DD4FF473710A4800F01BFFC3F86A
:1055F000101501215960D9604FF00041C3F88010A7
:105600004FF0FF31C3F80813026108BD00E100E06C
:1056100000500850342D0100124B4FF4E062C3F8E3
:1056200038230022C3F8AC25C3F8BC25C3F8CC2529
:10563000C3F82021C3F82421C3F8282120220A4BD3
:10564000C3F89C21C3F89C20BFF34F8FBFF36F8F2B
:10565000C3F89020BFF34F8FBFF36F8FC3F8902133
:10566000704700BF00200E5000E100E008B5FFF7D2
:10567000D3FF054B4FF4A062C3F834232022034B21
:10568000C3F89C21DA6108BD00200E5000E100E063
:105690000C4B10B51C681CB14B21042000F0CCFE53
:1056A000B1F5801F1A6004D340F2E141064800F0D2
:1056B000B9FE064B0122C3F8A005C3F8A415C3F830
:1056C000AC2510BDA0140020342D010000200E5088
:1056D000054A136833B100230449C1F8AC35C1F859
:1056E00020311360704700BFA014002000200E502E
:1056F00030B54FF0FF30064C6FF04041D4E9002345
:10570000904271EB0305F9D31046C3F3130130BD8A
:1057100040270E5008B5FFF7EBFF044BD3E90223F7
:10572000904299412CBF0120002008BDA014002008
:1057300010B5029C241841F10001A01A61EB03018D
:10574000B0F1004F71F1000103DB7721042000F07C
:1057500073FE10BDFFF7CCBF014B1861704700BF4F
:10576000A014002008B50E4B1B691BB9872104202B
:1057700000F062FEEFF3108272B6B1F5801F04D321
:1057800040F2E141074800F04DFE074BC3F8C00569
:10579000C3F8C4150121C3F8CC1502B962B608BD1F
:1057A000A0140020342D010000200E5008B5FFF792
:1057B000FBFE024B01221A6008BD00BF00500850DA
:1057C00010B5FFF7F1FE114C0023C4F8BC35C4F846
:1057D0002431FFF78DFF0A3041F10001B1F5801F40
:1057E00004D140F2E1410A4800F01CFE4FF00043B2
:1057F000C4F8B005C4F8B415C4F8A4310123C4F842
:10580000BC35044BC3E9020110BD00BF00200E509F
:10581000342D0100A0140020144BD3F8342312F4CB
:10582000A06F10B503D1C821042000F005FED3F805
:1058300020215AB100220E49C3F8AC25C3F820211B
:105840000B680BB9D021EFE70A609847074BD3F8F4
:1058500028214AB10022C3F8CC25C3F82821044BE3
:10586000BDE810401B69184710BD00BF00200E5056
:10587000A0140020014B187D704700BF700D002060
:10588000042810B511D883B104280CBF1024282493
:10589000A1420AD2064C54F8200018B141568A425F
:1058A000A8BF0A4600201A7010BD6FF01500FBE774
:1058B000700D00200728034611DC10F12D0F10DBBE
:1058C000094A101890F82E0002EBC00292F93C2011
:1058D0009A4207D0002918BF0130C0B270471B2080
:1058E00070470020704700BF9C200100072808B5C2
:1058F00007DCFFF7DFFF044B03EBC00393F93C0029
:1059000008BD0820FCE700BF9C20010010F0FF004C
:1059100008B5094B05D0012807D05121B52000F06A
:105920008BFD01229A601A6008BD044A1268292A78
:10593000F3D15862F8E700BF00E01050540E002089
:1059400010F0FF0008B5174B05D0012820D08421A6
:10595000B52000F071FD01225A60DA60C3F8000141
:10596000114B18700F4BD3F80824D2070FD40F4AED
:105970001268292A03D1D3F86834DB0707D4094B0E
:105980000022C3F81021C3F81821C3F8142108BD60
:10599000064A1268292ADAD100229862C3F81C212B
:1059A000E0E700BF00E01050850D0020540E0020FD
:1059B000014B01221A707047850D002008B50D4B70
:1059C00028B101280BD0D021B52000F035FDD3F847
:1059D000103113B9084B187808BD0120FCE7074ABD
:1059E0001268292AEFD1D3F81C01003818BF012012
:1059F000F2E700BF00E01050850D0020540E00209B
:105A0000024BD3F8080400F00100704700E010508A
:105A1000024BD3F8480400F00100704700E010503A
:105A2000024BD3F84004C0B2704700BF00E01050F2
:105A300007490246D1F84C04D1F84C1410F48030D8
:105A400005D0D0B201F003031B1A584258417047E9
:105A500000E0105038B51A4BD3F80C34DA0304D4F4
:105A600040F27F116D2000F0E7FC164A0124164B2E
:105A7000106A536620F03F0094645464136CDB0397
:105A8000FCD4136A116C03F03F03C1F30A01C1F5A2
:105A9000806181EAE1750B29A5EBE17509DD3F2BFA
:105AA00004D0013303431362172DE6DC0023936413
:105AB00038BD0B31F8DA002BF8D0013BF2E700BF1C
:105AC00000E01050000812500100008038B50B4C67
:105AD00023781BB100232370FFF7BCFFEFF3108581
:105AE00072B6637803F0FF000BB9FFF729FF05B921
:105AF00062B6034B00225A6638BD00BF880D0020F5
:105B000000081250002808DB4309012200F01F00A2
:105B100002496033824041F82320704700E100E0F1
:105B200070B5174D012204460E462B18DA7002F0AC
:105B300084FAA0B934B1012C0FD04FF494716D20C8
:105B400000F07AFC11232A19012105EB840451711C
:105B50000C4AA660C2F8043370BD8023F3E7002E20
:105B6000FAD034B90220B047002305EB8405AB60BE
:105B7000F2E7012C01D12046F5E740F24311DEE7C0
:105B8000880D002000E01050044B0022191803EB90
:105B900080034A719A60CA70704700BF880D002068
:105BA000014B1882704700BF880D0020014B988A76
:105BB000704700BF880D0020014B188A704700BF56
:105BC000880D002010B5EFF3108472B6064B034425
:105BD0005A780132D2B25A705B78012B01D1FFF7AB
:105BE00095FE04B962B610BD880D0020034610B5BD
:105BF000EFF3108472B611490B445A7822B940F27F
:105C000067216D2000F018FC5A78013AD2B25A7020
:105C10005B7883B98B7D43B1094BD3F80C34DB033C
:105C200006D44B7803F0FF002BB9FFF789FE02E0A2
:105C3000C87D00F0A9FD04B962B610BD880D002032
:105C400000E0105010B502F0FBF90C4C02F0F5F931
:105C500060B1237E3BB90A4B01229A61042363762B
:105C60000023A37610BD02F0EEF9F9E70323012229
:105C70006376034BC3F80423F2E700BF880D0020CE
:105C800000E01050014B01221A62704700E01050F2
:105C9000044BD87E28B1044BD3F81001B0FA80F041
:105CA00040097047880D002000E0105038B50C4BBB
