:10000000004F002035940000DDFC0000219400002A
:10001000219400002194000021940000219400000C
:10002000000000000000000000000000A19500009A
:100030002194000000000000399500002194000088
:1000400029970000299700002997000029970000B0
:1000500029970000299700002997000029970000A0
:100060002997000029970000299700002997000090
:100070002997000029970000299700002997000080
:10025000299700002B04010029970000299700002E
:100260002997000029970000150401002997000034
:10027000299700002997000029970000299700007E
:10028000299700002997000029970000299700006E
:10029000299700002997000029970000299700005E
:1002A000299700002997000029970000299700004E
:1002B000299700002997000029970000299700003E
:1002C000299700002997000029970000299700002E
:1002D000299700002997000029970000299700001E
:1002E000299700002997000029970000299700000E
:1002F00029970000299700002997000029970000FE
:1003000029970000299700002997000029970000ED
:1003100029970000299700002997000029970000DD
:1003200029970000299700002997000029970000CD
:1003300029970000299700002997000029970000BD
:1003400029970000299700002997000029970000AD
:10035000299700002997000029970000299700009D
:10036000299700002997000029970000299700008D
:10037000299700002997000029970000299700007D
:10038000299700002997000029970000299700006D
:10039000299700002997000029970000299700005D
:1003A000299700002997000029970000299700004D
:1003B000299700002997000029970000299700003D
:1003C000299700002997000029970000299700002D
:1003D00029970000FF0301002997000029970000DA
:1003E000299700002997000029970000299700000D
:1003F00029970000299700002997000029970000FD
:1004000029970000299700002997000029970000EC
:1004100029970000299700002997000029970000DC
:1004200029970000299700002997000029970000CC
:1004300029970000299700002997000029970000BC
:1004400029970000299700002997000029970000AC
:10045000299700002997000029970000299700009C
:10046000299700002997000029970000299700008C
:0C04700029970000299700002997000040
:10048000054B00221B78826001330260034A426000
:10049000C371FF230372704730060020F800080084
:1004A000F8B5C71D0028054627F007070CBF002038
:1004B000384600F0D7FA041E02DA6FF00B00F8BDE0
:1004C0002F4EF188B0880331737A0330327A89B2C3
:1004D00080B207F032F80028EFDB2744B178F378D8
:1004E000002D07F10307194427F0030700FB01F172
:1004F0000CBF0020384600F0DDFB07440DB9002F8B
:10050000DBDB01203C4600F0A3FAA0B1F17A91B107
:100510000737002D4FF025034FF0280227F007047E
:100520000CBF0020204602F005FB0028C5DB044478
:100530000DB9002CC1DBB37AABB1012000F088FA11
:1005400088B1F37A7BB10734002DB17A24F0070427
:100550000CBF0020204601F001FB0028ADDB044465
:100560000DB9002CA9DBF3683BB115B1F460002094
:10057000A5E72834A1D42046A1E7002DF7D1FAE75A
:10058000300600201FB572B6194B1C69ECB9BFF3D9
:100590004F8F1849184BCA6802F4E0621343CB60CE
:1005A000BFF34F8F00BFFDE7B2FBF6F22B465D1C99
:1005B000002AF9D1DBB203F110056D4405F80C2CCB
:1005C0000A2233B901A8A047E1E7024600230A2620
:1005D000EDE7013BDBB203F110050DEB0506B0FBC7
:1005E000F2F502FB1500303006F80C0C2846E8E75F
:1005F0003006002000ED00E00400FA050A4B07B5C4
:100600001A896846ADF80020DA889B88ADF8042086
:10061000ADF8023000F0C0FD18B1FC219C20FFF7BE
:10062000B1FF03B05DF804FB3006002038B5054685
:1006300038B306F049FA10B94FF0FF3038BD06F074
:10064000D9F8B0F5FA7FF7D80F4C1048256100F0C3
:100650007BF9002323752370E360012363801B2350
:10066000A380E38040F2032323814FF4427363812C
:10067000EFF3108472B600F035FB04B962B60020C7
:10068000DCE76FF01500D9E730060020FD0500001B
:1006900038B51446002847D1254D2B7D032B40D07B
:1006A00071B112B96FF0150038BD013906293BD878
:1006B000DFE801F0043A133A293A32001378AB70BC
:1006C0000020FFF7EDFE0028B7BF012302236FF0E3
:1006D0000B002B75A8BF2B75E6E71379002BE1D033
:1006E0005379002BDED01288FB2ADBD863881B3BB2
:1006F0009BB2E02BD6D81A2AD4D92368A2886B6083
:100700000C4B9A80DCE7012000F0A2F9237808B1B5
:10071000012BC7D9EB72D3E71388FF2BC2D8AB727A
:10072000CEE74FF0FF30BFE76FF02C00BCE700BF13
:100730003006002034060020F8B50D46064620B3EA
:1007400019B311F0070420D1114F3B7D012B02D1C9
:100750006FF00B00F8BD032B02D14FF0FF30F9E72B
:1007600000F054F80028F8D02846FFF799FE00283A
:10077000EEDB07F017FD3046F96800F06FFDFFF77C
:100780003DFF032320463B75E4E76FF01500E1E7EA
:100790003006002010B5064C237D032B03D100F05A
:1007A00079FD01F021F906F01DFF0020207510BD34
:1007B0003006002050B1074B03F1140253F8041B1C
:1007C000934240F8041BF9D1002070476FF01500E8
:1007D000704700BF1D30010008B500F027FD034938
:1007E0000120BDE8084000F02BB900BF81040000E3
:1007F00002680020014B1A60704700BF48060020C5
:10080000014B1B68184700BF48060020024B1868C0
:10081000003818BF01207047480600202DE9F84332
:100820000446184E00F104081648C6F8008001F08E
:10083000EBF80228054606D11249204606F0DCFBFB
:100840002846BDE8F8830428FAD13146204606F050
:100850000BFCB0F5817F03D372210820FFF792FED5
:100860000028E1D0277894F80290384600F020F86C
:100870000028D9D03E2FE3D1484600F051F8002897
:10088000DED1D1E74C060020074B4FF0FF3141F697
:10089000FF72C3E9001205490022C1E900221F21AD
:1008A000C3E90212704700BF40000020500700203B
:1008B0003F280CD801380B4BC0F3421200F01F0048
:1008C00053F8223023FA00F000F001007047FF28AF
:1008D00006D04038044BC0F3421200F01F00EFE78F
:1008E000012070474000002050070020074B0146C0
:1008F000006849681A4603C240F48C221A6041F02D
:10090000107242F4FF625A60704700BF400000203E
:100910000246024B0068516803C37047480000203C
:10092000431EF428DBB21FBF064A590903F01F0318
:1009300002EB81021DBF9068D84000F0010000204A
:10094000704700BF40000020014B1860704700BF97
:100950005807002010B5FFF797FF06F09FFE034BE6
:1009600004461B6803B19847204610BD5807002075
:100970000A8870B595B2C67CC2F30E0204880236AE
:1009800002F118033444C35AA4B233442344013B54
:10099000B3FBF4F303FB0422438892B29342044B6B
:1009A0008BBF2B40AB4313439BB20B8070BD00BF8A
:1009B0000080FFFF4A1E062A08B50346084604D8F1
:1009C0004FF4D1711520FFF7DDFD094A914202D99C
:1009D00040F2A311F6E711B903B1196008BD2BB1BC
:1009E0001B680022C3E901211A1D1A600430F5E7D3
:1009F000FAFFFF7F10B5114B00EB41041A786389B1
:100A0000B3FBF2F303FB0223013A1A44B2F5706F11
:100A10000279807828BF00231A440B18B2FBF0F14A
:100A200000FB11215B1AB3FBF0F100FB11331344FF
:100A30006FEA43436FEA5343638110BD5C070020B4
:100A4000024B03EB80035960704700BF5C07002036
:100A5000034B03EB80035868003818BF0120704730
:100A60005C0700202DE9F04F10F0070A85B005461D
:100A700004D040F261111720FFF784FD524F044665
:100A800007F10C06B146B04657F8043B8DF80BA0B1
:100A90003BB101A898479DF80A30082B01D9E821FD
:100AA000E9E79DF80B1041BB05B131604F4506F1F8
:100AB0000406E9D1002D6ED00022DFF81091022744
:100AC000964689F8002058F827A0013FBAF1000F98
:100AD00054D09AF804609AF802C0FF2E5FD03946CD
:100AE0000023481C37D19C44BCF1FF0F3ED90AB10A
:100AF00089F800E040F22711BDE79DF80AC04B1DC0
:100B000060465A0004EB4303022838BF0220441E0B
:100B100040422344BDF808406444CCF1000C03403B
:100B2000013C04EA0C04B4F5803F01D3F821A2E7AC
:100B300075B19A1A0120326091701480D0709DF8BE
:100B40000C00107101984FEA104C1081A2F806C0F9
:100B500004FB0134AAE758F8210028B190F804B04A
:100B6000B34504BF80781B180139BAE7DBB2E6450C
:100B70008AF804303CBF5FFA8CFE01227B1CA2D1B4
:100B80000AB189F800E0022640F6FF6A58F826709C
:100B9000B7B9013EFAD2601B05B0BDE8F08F002363
:100BA000E5E707EB410309F101093846A3F80AA07C
:100BB000FFF720FF5FFA89F1BB788B42F1D8E8E7B5
:100BC0004FF00009F6E700BF600700205C07002037
:100BD0001C4B03EB810370B51C69054644B3030449
:100BE00004D54FF4DC711720FFF7CCFC01462046FA
:100BF00006F07EFCFF28014604D02046BDE8704088
:100C000006F093BCA078B5FBF0F300FB1353DBB206
:100C100019460A1D04EB4206B6F90260002E09DBF4
:100C20000131B1FBF0F200FB1211C9B28B42F0D1DD
:100C3000002070BD8B4201D00023E37004EB420220
:100C40005580DAE75C070020094B03EB810301467E
:100C500010B51C69204606F04BFCFF28014604D065
:100C60002046BDE8104006F060BC002010BD00BF6B
:100C70005C07002038B50E4B0446827903EB8203F3
:100C8000186908B9052038BD8278E1799142F9D216
:100C90004B1CE37100EB41035D89B3F90A30002B73
:100CA000F3DBA58006F041FC20600020EBE700BFED
:100CB0005C07002070B5044610F003000E4603D018
:100CC0004E211820FFF75EFCFFF774FE054624B1A5
:100CD000034831460460FFF76DFE284670BD00BF33
:100CE000780700201F4B4FF0FF3000211A680123C6
:100CF0005360C2F80803C2F80015C2F804351A4A56
:100D000012685360C2F80803C2F8001540F6FE717D
:100D1000164A1748C2F80815B0F90020002A0CDB63
:100D2000510902F01F02934001F12002114941F8DC
:100D30002230BFF34F8FBFF36F8FB0F90030002B1D
:100D400009DB5A09012103F01F03994002F16003F6
:100D5000084A42F82310054B40F6FE72C3F80825F6
:100D6000704700BF980F0020940F0020002008500B
:100D7000AC0F002000E100E0014B1876704700BF87
:100D80008007002010B50446084806F035FF0849E2
:100D9000204607F0A8F8204606F0FAFE20B12046CB
:100DA00001F03AFD002010BD1220FCE72C080020C5
:100DB000340800202DE9FF4106780746012E40F057
:100DC000898031460020FFF73FFF054620B940F6F5
:100DD00033713920FFF7D6FBBB88002B72D106F0A8
:100DE000B9FE002870D195F8F430002B6ED128465A
:100DF000FFF7C8FF044600286AD1DFF84481314676
:100E00003046FFF721FF98F81C3006461BB110B999
:100E100040F64F71DDE7D8F818200392002B45D03B
:100E200096F8F430002B41D07B88002B3ED198F807
:100E300008303046009303ABD8F8142098F80A1015
:100E400006F0B9FE90B3304607F072F806F14003A1
:100E5000074605F14002643653F8041BB34242F8DA
:100E6000041BF9D12846FFF78DFF024610B140F66A
:100E70007671AEE70C2F07D10146284602F08CF8B8
:100E8000E0B940F67A71A4E717B140F67F71A0E7A8
:100E900098F809302846296D43F0040385F854304A
:100EA00002F04CF850B940F6817192E7BA882846B2
:100EB000798802F071F8002808BF0724204604B0A2
:100EC000BDE8F0811124F9E73A24F7E70C24F5E7AF
:100ED0001224F3E701210020FFF7B6FE054610B902
:100EE00040F6947175E706F0A2FF04460028E5D1AC
:100EF00095F8543095F8892022B195F88A2013434B
:100F000085F88900053B012BD8D82B6D13B940F625
:100F1000A4715EE701210846FFF796FE2946F822F4
:100F2000064605F079FF0423316D304686F85430CB
:100F300002F004F80028C1D140F6A97149E700BFCA
:100F40002408002038B506F09CFC154C00F01CFB72
:100F500000F0CEF904F1100506F042FD00F010FE9D
:100F600000F03CFC00F022FC00230E4A0E49136006
:100F70000E4A238062600E4A84F8203011601B21E3
:100F8000537491805382938293750A4A1068083291
:100F900012F8041CA060217307CA85E8070038BD59
:100FA000240800208800002003021B001B004801C9
:100FB000740C002018210100044B41F64C52C3E987
:100FC00002221B221A74FFF7BDBF00BF740C002061
:100FD000014B93F92600704724080020034B5A88E0
:100FE00002801B7883700020704700BF740C0020C3
:100FF000F8B503780546032B02D912242046F8BD24
:101000004378032BF9D8467E0EB11124F6E7837896
:10101000012BF2D100F062F9C307F6D5AB7813F0DB
:10102000010414D0EA78012A3AD82A693C49A2F28C
:101030005370884236D8AC686FF41C7CA4F6C41098
:10104000614488422ED8944234BF12240024980769
:1010500011D5EA78012A27D82A6932498A4225D847
:10106000A9683148A1F6C41C84451FD8914238BFF5
:1010700012262643F4B259071DD5EB78012B0CD864
:101080002B692949A3F6C4128A4211D8AA68A2F68C
:10109000C41088420CD89A420DD244F01204ADE735
:1010A0001224D4E73024D2E71226E2E73026E0E724
:1010B00044F03004A2E7002CA0D12B7E013B062B8C
:1010C0009BD801212046FFF7BFFD064620B940F618
:1010D00034613920FFF756FA903006F0FEFE18B161
:1010E00096F854309A0719D1EA78A978012AB5F808
:1010F00000C0A86814BFB2FA82F202222E7E18BF86
:101100005209CB07094B48BF2F6919725A72A3F8CD
:101110000AC01E731974C3E905076FE70C246DE755
:101120003CF670028FFD7002CBF3700224080020A1
:1011300000B589B0437940F271218DF8043083798C
:101140008DF8053001238DF8063003788DF80730CF
:10115000B0F801304B430393B0F803204A430C49E5
:10116000097B0592A2F6C4128DF81C1000218DF89F
:101170001D1008498A4209D8A3F6C4138B4205D82A
:1011800001A8FFF735FF09B05DF804FB3020FAE74E
:10119000240800203C369C000278034672B1427855
:1011A00062B142881A2A09D982881A2A06D90068A7
:1011B000034A106000209B8893807047122070477C
:1011C000740C002002680020014B9A60704700BF39
:1011D000740C00200378FF2B14D14378FF2B11D11E
:1011E0008378FF2B0ED1C378FF2B0BD1037923F02B
:1011F000E0021F2A06D11F2B04D05B09024A0020FF
:1012000013737047122070472408002008B500F0BF
:10121000BDFC01F01BFFFFF7DBFE01460248BDE805
:10122000084001F0ABBA00BF5008002010B5084CD0
:10123000072000F041F8074904F5037006F001FBB0
:1012400004F504700449BDE8104006F0FABA00BF86
:10125000500800208C0000209400002038B5094C74
:101260000D4600F0ADFBD4F80C02C4F8045106F0B2
:10127000E0FAFFF7A1FE00F015FC012384F8183214
:1012800038BD00BF50080020014B93F8180270478A
:101290005008002010B5074CD4F8100206F0C9FA27
:1012A000D4F8140206F0C5FAFFF74CFE002384F8C8
:1012B000183210BD50080020C208044900F0070091
:1012C00001238340885C03438B5470475000002007
:1012D000014BD3E90001704750000020034B186810
:1012E000C0F30020400040F0010070475000002093
:1012F00008B505F07FFA0023074A32F8231081422F
:1013000005D302EB83029378044A137008BD0133BE
:101310000C2BF2D10023F7E72C210100690A0020F1
:10132000024B1878072828BF07207047690A002059
:1013300050B90A4A0120134603F8010B0868C2F8A5
:1013400001008A889A807047012805D1034B0A68FA
:10135000D8719A608A889A81704700BF940A0020E9
:1013600050B90B4B187888B1D3F80120B3F8053089
:101370000A6001208B807047012806D1044BD87980
:1013800020B19A689B890A60F3E70020704700BF8C
:10139000940A002010B9044B18787047012806BF42
:1013A000014BD87900207047940A0020F7B58A884D
:1013B00000238DF80600ADF8042008680B4A8DF86C
:1013C00007300146147802F5A872019DD8B2844214
:1013D00001D8082007E052F8087F01335668AE4272
:1013E00008BF8F42F2D103B0F0BD00BFA80A0020B1
:1013F000084B0146002230B55C7803F20113D0B2ED
:10140000844201D8082004E013F8015F01328D42C4
:10141000F5D130BDA80A0020F0B5254D89B095F86A
:10142000984105F299116846224605F0F5FC2146DF
:10143000684606F045FA0446B8B300EB400102A83E
:10144000C9B2FFF7DDF9631E95F8A1610124DBB293
:1014500095F8981105E0721CB2FBF1F001FB102227
:10146000D6B206F120020DEB020010F8202C002A63
:10147000F1D103EB430100F8204C06EB460220318A
:101480002A44694411F8187C82F8A27111F8177C7B
:1014900011F8161C82F8A37182F8A411013BAA1955
:1014A000DBB282F89941FF2BD2D109B0F0BD00BF69
:1014B000A80A002070B5064688B00C46002A4ED017
:1014C000294A92F8A131D01890F8991119B9FF2141
:1014D0002820FFF757F803EB43010133114491F83B
:1014E000A251E57091F8A35191F8A4112571617191
:1014F000002180F8991192F89811B3FBF1F001FBEB
:10150000103382F8A13192F8C23123B9174902F59C
:10151000DD7006F08AFA65790D220021684605F033
:101520003F0545F04005657106F0D5FFE37804AA54
:1015300069468DF80F30304623798DF80D508DF8BF
:101540000E30042306F06EFF9DF81F3023709DF8C7
:101550001E3063709DF81D30A37008B070BD03216C
:101560006018FFF74DF9D6E7A80A0020191400000B
:10157000044B5A78824286BF1B1893F84201002020
:10158000704700BFA80A0020064B00224FF461718B
:101590001A8083F8C32183F8C421A3F8C61183F805
:1015A000C2217047A80A002010B51446FFF7FEFEBE
:1015B000082813D0FFF71CFF094B5A7882420DD937
:1015C00004B12070184490F83A3190F84A01012B88
:1015D00008BF40F0010000F0010010BD0120FAE753
:1015E000A80A0020014BB3F8C6017047A80A0020E2
:1015F0000A4B30B55C7884420ED9184490F8020149
:101600002B3003EBC004A5790D7053F83000106047
:101610000120A388938030BD0020FCE7A80A0020A9
:101620000246074810B590F8C34124B1417821B172
:10163000023001F033FD204610BD0C46FBE700BF31
:10164000A80A0020F8B50646174C48B3617804F59F
:10165000A17006F035F994F89851074604F29910F4
:10166000294606F02DF92D1AEDB2AF421AD8002501
:101670006278EBB29A4201D80120F8BDE21892F8E4
:1016800042215AB90621324601FB034104EB031300
:1016900001F5857103F18200FFF70CFF0135E7E7E3
:1016A0000546E5E70020E8E7A80A0020F0B51B4E54
:1016B00089B007460D46737883422CD9331893F8C6
:1016C000424144BB0D222146684606F004FFEB78F8
:1016D00006EB071004AA8DF80F3069462B7982308B
:1016E0008DF80E306B798DF80D30042306F09AFEDC
:1016F0002A789DF81F309A420AD16A789DF81E30E8
:101700009A4205D1AC789DF81D30E31A5C425C41E9
:10171000204609B0F0BD0020FBE700BFA80A00206A
:10172000074B5A78824209D91A1892F842212AB9ED
:10173000062202FB003000F58570704700207047DC
:10174000A80A0020074B93F900301844142804DC41
:1017500010F17F0F03DB40B27047142070476FF029
:101760007E007047700C00207F2307B50DF1070045
:101770008DF8073002F0A2FA03469DF9070053B135
:10178000094B5B785B425BB21844142806DC10F10D
:101790007F0F05DB40B203B05DF804FB1420FAE7CD
:1017A0006FF07E00F7E700BF700C0020024B0022B4
:1017B0001A705A70704700BF700C0020054BFF2252
:1017C0001A70054A016811600179117100221A70BE
:1017D000704700BF720C00205800002007B5064A71
:1017E00010681279009068468DF80420FFF7E6FF34
:1017F00003B05DF804FB00BF3230010083230B709F
:10180000014B1B78CB7070478C0C00202DE9F347FF
:101810008246894605270026DFF84881D9F810302E
:1018200053B11B7A1BB980211020FEF7ABFED9F80B
:101830001040B4B9002071E0D9F80440237A012B9C
:10184000F8D0EFF3108372B6D9F804201268C9F803
:10185000042003B962B6C9F81040237A0BB9A62157
:10186000E2E7257AEDB227726B1E0B2B6AD8DFE810
:1018700003F066061C3463693D69696969586368E9
:1018800013B94FF4D771CFE720465146984704204B
:10189000EFF3108272B6237A052BD9B25CD126728F
:1018A000C9F81060B2B962B614E0636813B940F2C7
:1018B000B711B9E75146204698470346ADF80400F2
:1018C000C0B2C3F30723012B3FD0022BE0D100238A
:1018D000C9F810300028A1D020E0636813B940F2A5
:1018E000BF11A1E7204698470020D1E763680BB9F4
:1018F000B52199E70D2200248AF8002001221988D9
:1019000018698AF80220AAF803108AF805208AF8D4
:10191000064005F0E3FD0420C9F8104002B0BDE820
:10192000F087D8F80030514620469847034660B10A
:101930000220C9F81060F1E74FF4FB7174E740F240
:10194000F91171E74FF4FE716EE725720028E5D1B9
:10195000002B7FF463AF6DE711B940F21D2163E7FF
:1019600000209FE7A000002038B5134C142200216E
:10197000201D06F0B0FD0125257404F10803142292
:10198000002104F11800C4E9013306F0A4FD84F835
:10199000245004F11C03094AC4E906330023E3621E
:1019A000236384F83430C4F83530C4F8393084F80F
:1019B0003D30136038BD00BF8C0C00209C0000201F
:1019C00010B5084C2378FF2B04D04FF4A0711020E1
:1019D000FEF7D8FD05F054F92070BDE81040FFF780
:1019E000C3BF00BF5D00002010B5034C207805F098
:1019F00061F9FF23237010BD5D000020014B1878B2
:101A000005F068B95D00002010B506490446FFF7EF
:101A1000FDFE28B920460449BDE81040FFF7F6BE98
:101A200010BD00BFA40C0020900C0020134610B580
:101A3000027A22B140F299211020FEF7A3FD0A4656
:101A400001460248BDE8104005F0CCBF900C0020D4
:101A50000346064890F83E203AB190F83D2022B95E
:101A6000034900F8353B05F0DABF70478C0C0020C5
:101A7000FD170000094AD2E90003434083EAB01190
:101A800081EA43214FEAF34311605360044B58430A
:101A90004FEAF06000EB8000704700BF600000205C
:101AA000BB79379E10B50A4C08210948FEF7A8FEFD
:101AB000D4E900321343F7D0064CFFF7DBFF206078
:101AC000FFF7D8FF236860601843F6D010BD00BF51
:101AD00060000020CC0C0020F0B51F4D00242B78B6
:101AE00014709BB1013B6D68DBB21E1B012E0FDC35
:101AF00005EBC40655F8347076688E4208BF8742FD
:101B000027D0B84271EB060612D214700020F0BD47
:101B10001E197710C6F3470655F837C005EBC70EF8
:101B20008445DEF804708F412CBF33463446DCE731
:101B300005EBC30455F8335064688C4208BF8542F6
:101B400006D0A84271EB040428BF01331370DDE70F
:101B50001C4601201470DAE7E40C002010F00702A4
:101B600008B503D063214820FEF70CFD18B1034BE4
:101B7000197258601A70C80008BD00BFE40C00203C
:101B8000014B00221A707047E40C0020014B002228
:101B90001A607047080D002008B5044B186810B98A
:101BA000FFF7F4FF08BD0C20FCE700BF080D002084
:101BB00030B50D4AFF231371D0E9065373B1D0E954
:101BC00002149D610C44D9682144D960816939B1FE
:101BD000CB610023C0E90633137130BD1560F5E712
:101BE000002BF6D0D960F4E7080D002010B5124A9A
:101BF000FF231371C16189B91368836103B1D8618F
:101C000010600023C169C36099B1CB687BB184685F
:101C1000A3420AD230213720FEF7B4FC8B698861D9
:101C20008361002BEDD0D861EBE71B1BC360002361
:101C3000CB600023137110BD080D0020034B002062
:101C40001B6803B9704718469B69FAE7080D002026
:101C50000B4B002230B51B6804464FF0FF35104691
:101C600023B911B9002808BF104630BDDA68A24276
:101C700003D3AA423CBF154618461A469B69EFE7B4
:101C8000080D002070B50F4CFF232371036A1BB1B0
:101C900081689D68A94203D2E5213720FEF772FCD6
:101CA000C2698669DA619E6152B193619A691AB11B
:101CB000D361C26811444A1BDA600023237170BDEE
:101CC0002360F3E7080D0020024B00221B6883F815
:101CD00070207047100D002008B5FFF745FD014B3F
:101CE000187008BD68000020024B18686C3000F0C6
:101CF00067BF00BF100D002038B50F4CFFF7F4FF91
:101D0000656800F033FF63682860186820B940F206
:101D1000EC413220FEF736FC05F087FF10B940F2A7
:101D2000EE41F6E701F05AFF002001F08BFF6368F7
:101D300004221A7138BD00BF100D002070B52B4C65
:101D400006466368186805F070FF054620B941F241
:101D5000AE313220FEF716FC236893F8543013B9E5
:101D600041F2B431F5E776B105F014FE30B16368A5
:101D70001A79022A0ED841F23431EAE7284605F0F2
:101D800021FE0028F3D163681A79022A17D841F29C
:101D90009431DEE71A79082A02D941F23531D8E7C1
:101DA0001B792846A26803F180431269033B52F86D
:101DB000233098470C2812D941F2C731C9E71A7964
:101DC000082A02D941F29531C3E71B79A26803F1D1
:101DD00080435269033B52F823309847EAE7A368EF
:101DE000DB68BDE8704053F820301847100D002024
:101DF00008B5074B93F900207F2A04D140F29231B5
:101E00003220FEF7BFFB02707F221A7008BD00BFB0
:101E10006800002010B504788EB004F00F0404A907
:101E2000224605F023FFFFF757FF042C33D11B4C4C
:101E3000059A2368107893F8741088422BD1507853
:101E400093F87510884226D1907893F876108842DE
:101E500021D1D07893F8771088421CD1107993F86B
:101E60007810884217D1517993F87920914212D194
:101E70009DF8212093F87A309A420CD10DF10F0091
:101E8000FFF7B6FF9DF90F3004A90093237C227B56
:101E9000606805F0DCFE03200EB010BD100D0020C0
:101EA0000D4A536810B51979022904D841F2A641A8
:101EB0003220FEF767FB1979082902D941F2A741C0
:101EC000F6E71B79926803F180439268033BBDE813
:101ED000104052F823301847100D002010B5054C63
:101EE000637B2BB101F0DCFE01F036F90023637354
:101EF00010BD00BF100D002010B5064CFFF7EEFF1F
:101F0000012263681A71FFF7EFFE2068BDE81040F8
:101F100006F023B9100D002010B500B919B9BDE8BD
:101F20001040FFF7E9BF0D4A53681979082904D812
:101F300041F276413220FEF725FB19790C2902D9AE
:101F400041F27741F6E71B79926803F180435268CA
:101F5000093BBDE8104052F823301847100D00200F
:101F600038B52F4CFFF7C0FE656800F0FFFD6368D1
:101F70002860186820B940F249413220FEF702FB80
:101F800005F053FE054610B940F24B41F5E72368D2
:101F900093F889306BB123681A6D93F88A10C3F8EF
:101FA000F02093F854200A4383F85420002283F849
:101FB000892063681A795AB11B79012B08D0002156
:101FC000206805F0BCFF18B9BDE83840FFF794BFA2
:101FD0002368144A93F88830D05C01F099FC012101
:101FE000252001F0F7FB284601F0F8FD0121084605
:101FF00001F0B8FCE81CFFF713FB607320B101F09F
:102000007FF8402001F040FE002362680821E3735E
:10201000A3732374D380032321735171137138BDCB
:10202000100D0020FD21010070B5384C0546636895
:102030001B79012B04D940F6F9013220FEF7A2FAF0
:1020400001F0FAFB01F02CFE01F086F8304801F0B7
:10205000BDFD304801F0B4FD2F4801F04FFC6B7A14
:1020600023B123681B6E0BB101221A602B7A032B5C
:1020700002D140F62811E0E7206893B9032190F8D7
:10208000882090F84A500E460132B2FBF6F303EB7B
:102090004303D31ADAB245FA03F3DB072BD580F8F2
:1020A000882090F9580001F023FCFFF759FF2568BC
:1020B00095F84830F3B16FF00043D5E920129A4209
:1020C00008BFB1F1FF3F15D003F0DEF9D5E92023B9
:1020D000904299410ED3236893F8483083B925681C
:1020E000FFF780FA044603F0CFF90C4BE4FB030141
:1020F000C5E9200170BD013911F0FF01C4D1CEE75F
:102100000120FFF79FFA0028F4D0E8E7100D002027
:10211000A400002055555500D6BE898E40420F00C0
:102120002DE9F8435E4F0023064689467869D7F8C3
:1021300000800370437001F06DFD054630B9002545
:102140000320FFF785FC2846BDE8F8837C69032E51
:10215000237833D123F00F0343F0030323700C23C0
:102160006370D8F874307869C0F80930B8F87830FE
:10217000A0F80D3098F87A1005F002FC002178697B
:1021800006F039F83B6893F8482003F1420993F8C8
:102190004180002A62D14C46236841467869C0F8E4
:1021A0000330A388A0F8073005F0DDFB3D4BD3F8E2
:1021B0000C32002B66D001F059FCC0E723F02F034E
:1021C0003968222243EA4913627043F00503237001
:1021D0000B6DDB69C4F80F300B6D5A6AE274100A9C
:1021E000120C207540F2E24062759A8DB2FBF0F25B
:1021F000A2759A6AB2FBF0F2E275C2F30722227668
:102200009A69B2FBF0F26276C2F30722A2761A8CC8
:10221000E276120A22775A8C6277120AA277D3F8F2
:102220008F20C4F81F2093F8933094F8242084F86A
:1022300023300B6D22F01F0293F89A3003F01F0336
:10224000134384F82430FFF76BF894F8243003F03C
:102250001F0343EA401384F8243082E793F85420A4
:1022600052070CD593F84C204AB193F84D00FFF774
:1022700057FA044600288ED04FF001088CE77B689F
:102280005879F4E7052E7FF45EAF3B6821681A6D3C
:10229000C2F80A10A188D1811B6D83F8098052E72A
:1022A000100D002000A0085010B500210320FFF7FA
:1022B00037FF18B9BDE81040FFF71EBE074C0321D9
:1022C000206805F03CFE0028F4D00121084601F00A
:1022D00001FD636809221A7110BD00BF100D0020B6
:1022E0002DE9F04F734C95B00546FFF7F5FC2368D8
:1022F00093F8543013F0060F04D0012296210020E9
:1023000005F06DFF2E7828460AA906F00F06324622
:1023100005F0ACFC0B9D55B39DF83930012B50D125
:102320006B7903F0C003A3F140056B426B41627B04
:102330004AB143B1656805F0D0FA636868715B79AA
:1023400023730123A3736368587908283BD10B9941
:102350009DF8390005F078FB626805460B99053257
:102360009DF83900FFF720F9636800283DD0226806
:1023700092F8543013F0030106D0062E97BF92F85E
:102380004B1000212943C9B2606801F0010113F02C
:102390000403817106D0062E97BF92F84C300023BB
:1023A0001D43EBB203F00103C3710B9BF3B19DF826
:1023B000391082F87A10196851679B88A2F8783032
:1023C00014E00023B3E708AA0DF11F01FFF710F98D
:1023D00020B940F6A6313220FEF7D4F808A99DF8BE
:1023E0001F0005F031FB0546C1E7D880062E00F23C
:1023F000C680DFE816F06100E4000700C400C400F6
:10240000C400240001F032FB266896F85430980787
:1024100013D06568AB7983B108A8FFF7E9FC9DF993
:10242000203002220AA902932846237B0193FF232E
:10243000009306F1420305F0FAFB03251DE06568F1
:10244000AB79002B00F09B80266896F8542091070A
:1024500019D508A8FFF7CCFC9DF9203028460622A4
:1024600002930AA9237B09250193FF23009306F118
:10247000420305F0DCFB00232374FFF72FFD284601
:1024800015B0BDE8F08FD30779D5570701D501F016
:10249000EDFA08A8FFF7ACFC9DF920202368029212
:1024A000227B42330192FF22009206220AA9606831
:1024B000C1E700BF100D0020236893F85420560791
:1024C00038D56168CA79002A34D00B9A93F85A003B
:1024D0001578854256D1557893F85B00854251D1E5
:1024E000957893F85C0085424CD1D57893F85D00DF
:1024F000854247D1157993F85E00854242D15079E3
:1025000093F85F2090423DD19DF8392093F859000F
:10251000151A6A426A4193F8560001284DD0002AE4
:102520004BD193F84D30082B02D04A799A4244D0CF
:1025300001F09CFA6568AB79002B3CD0266896F8D0
:102540005420900720D508A8FFF752FC9DF92030B1
:102550002846002202930AA9237B09250193FF2321
:10256000009306F1420305F062FB012323746368C4
:10257000DA79002A81D19B79002B7FF47EAF01F0BC
:1025800075FA5AE70022C6E7D10714D5530701D5DB
:1025900001F06CFA08A8FFF72BFC9DF920202368B6
:1025A0000AA90292227B42330192FF22009200226A
:1025B000606805F03CFB0325D9E70A25D7E7616889
:1025C00022688B799DF83A000593012892F84830EB
:1025D00091F807B083F0010A40F0A8800C98477981
:1025E00007F0C007A7F1400CDCF1000747EB0C0730
:1025F00092F85400460740F19B8092F84C00002866
:1026000000F0968092F84D50082D00F093802846F7
:10261000FEF7AEFF4AEA00005FFA80FA002F00F0F2
:102620008B800C992846FFF741F80646216891F8FF
:10263000542091F8418055074ED50B9A91F85A00D5
:10264000157885427AD1557891F85B00854275D12D
:10265000957891F85C00854270D1D57891F85D004D
:1026600085426BD1157991F85E00854266D150792B
:1026700091F85F20904261D19DF8395091F859202E
:10268000A81A4542454162685279082A58D091F803
:102690004D90A9EB0202D2F1000949EB0209002E8C
:1026A00051D1BAF1000F50D00C9B42319DF83A2025
:1026B000404605F0E7F8BBF1000F0BD0236893F814
:1026C0005630012B56D02BB9002D53D110B1B9F192
:1026D000000F51D101F0CAF9236893F854309B07D9
:1026E0003FF4ABAE01F0C2F9059B002B3FF4A5AE61
:1026F00020680C9B00F142019DF83A2090F84100BF
:1027000005F0C0F8256800B90EB308A848EA4608E5
:10271000FFF76EFB9DF920300293237B01935FFA54
:1027200088F30093012205F14203BFE600275FE72B
:102730004D7969E7002679E73E4677E70025A2E76D
:102740004FF00009ABE70120B5E73046B3E795F855
:102750005530023B012B3FF670AE002F3FF46DAEBB
:1027600008A8FFF745FB9DF920300293237B0193D6
:10277000FE23D6E70028ADD00A257EE6F8B5174F30
:102780000E46012178610020FEF722FA054620B9A5
:1027900040F682013220FDF7F5FEF822002105F017
:1027A0009AFE01210846FEF713FA044618B1F822F2
:1027B000002105F090FEBB6813B940F68C01E9E7F3
:1027C000304605F0CDF9284605F085FB24B12046BA
:1027D000BDE8F84005F07FBBF8BD00BF100D00203C
:1027E000014B024A9A607047100D0020040100203E
:1027F000036810B523B940F66D113220FDF7C2FE13
:10280000044A13606C3353609368BDE810401B6842
:10281000184700BF100D002038B5044690F840005E
:1028200000F0FD0004F14201003818BF012084F8D7
:102830004100FEF795FD94F84030023BDBB2012BDE
:1028400094BF0123002384F8483015D8FEF7CAFE50
:10285000054602F019FE094BE5FB030194F84830E8
:10286000C4E9200143B10020FEF7ECFE20B940F698
:1028700015213220FDF786FE38BD00BF40420F0013
:102880000149363005F0CEB89F7A000008B504F053
:10289000A0FE054AD2E84F3F0133DBB2C2E8413F18
:1028A0000029F7D108BD00BF280D00202DE9F84F01
:1028B0001E46474B0D46934600211A7804689DF842
:1028C00028709DF82C809DF930909DF834A001600F
:1028D00032B9A4F108015868BDE8F84FFFF7D6BF38
:1028E0001A2204F1090005F0F6FD0123A372BBF1E1
:1028F000060F3DD8DFE80BF00421273C313C2B00CC
:10290000E37A23F0130343F01303E3720123B8F1D6
:10291000080F04F10E0284F8189023754FF0FF039E
:10292000A3754FF07F03E37545D004F10D014046D8
:10293000FEF75EFE08BBC1211CE0E37A23F015031D
:1029400043F01503E1E7E37A43F01003DDE7E37AB0
:1029500023F0120343F01203D7E7E27A4AF01A0A8F
:1029600022F01B020AF01B0A42EA0A02E272CDE7D9
:1029700040F22B413320FDF705FE637B43F0020359
:102980006373E37A5B071FD5BA1E04F11C03012AA7
:102990008BBFAA6832681168E2618ABFE161B288C0
:1029A00092889A80E776002323720A492046BDE880
:1029B000F84F05F037B86B7C63736B681968C4F81F
:1029C0000E109B889380DCE7FF23E376EBE700BFE4
:1029D000280D0020D92900002DE9F04305468DB0CF
:1029E0000C4600200121FEF72FF9064620B940F2DF
:1029F000C7113320FDF7C6FD9030A5F108084C4FF4
:102A000005F06BFA18B196F85430042B17D1304604
:102A100005F0A0F898B941467868FFF737FF4FF402
:102A20000073ADF8043000209DF8043063F3070014
:102A30009DF8053063F30F200DB0BDE8F08302A9C7
:102A400005F1230005F043F9EE7A04F10D0316F0C9
:102A5000100607D09DF8186018460599324604F014
:102A6000DBF90346E97AC80601D45B21C1E711F01E
:102A7000040FAA7A95F80DE004F1060005F10E0C9A
:102A800029D095F81B90B9F1FE0F24D11121E270E5
:102A900084F805E021701101012202312271617078
:102AA000D5F80E20C4F80620BCF80420828084F8F3
:102AB0000C90EA69C4F80D202A8C9A802B7EE3746E
:102AC00041467868FFF7E2FE237923F06003237123
:102AD0004FF40173A5E706F10A030321E2705343A3
:102AE0002170023384F805E06370D5F80E30C4F825
:102AF0000630BCF804308380267326442B7E737323
:102B0000EA7A12F0080002D004232371D8E702F019
:102B10000303032B01D12071D2E7520701D5012312
:102B2000F3E7022BF1D00BB92171C9E7A22160E7CD
:102B3000280D0020233270B5054692B20C461E4681
:102B400004F00FFD25B1034A5560147256721470DB
:102B500070BD00BF280D002010B5034C606804F064
:102B600022FD237A237010BD280D002038B5134DA7
:102B7000686804F01EFD044620B940F24711332076
:102B8000FDF700FDD5E84F3F013BDBB2C5E8413F13
:102B90000029F7D104F108052322284605F09BFC03
:102BA0007F2301222846E377FF23A377637584F808
:102BB0002330E37C62F34613E37438BD280D002014
:102BC000016810B5044631B1034B08395868FFF766
:102BD0005DFE0023236010BD280D00202DE9F04F7D
:102BE00004468FB098468A469146BDF860B002F020
:102BF0004BFCD4F8B430074620460391049305F00B
:102C00008DF80546B8F1000F00F06B81B9F1000FA7
:102C100000F0E280804617F5FA630593039B43F1C9
:102C200000030693FFF70AF8064604F1C800314690
:102C30000790FEF7DBFFD4F8F01011B1079805F00C
:102C4000B9F9BDB1D4F8D050BEB1B0682A46D6E9C2
:102C50000031C018059B009341F10001069B0193D0
:102C600004F0FCFE8542034608D240F26731212081
:102C7000FDF788FCD4F8B050E6E73346059AD4F85F
:102C8000B0109D18069A42F1000601F2CF7213446B
:102C9000B3FBF1F34B43EB1A66F10002C4E93232A5
:102CA000BBF1000F40F08D804FF0FF326FF000431A
:102CB000C4E92423204605F01EF8D4F89030D4F857
:102CC000941083465A1B059361EB0600012A70F1AC
:102CD00000034FF00003C0F2F480DDF810C094450B
:102CE000834100DB0492049BD4F8B400834228BFE4
:102CF00003460493C4F8BC30B9F1000F05D0D4E901
:102D00003223C4E92656C4E92A234FF00009C4F847
:102D1000B8B02A46334620460691C4E928568AF8B8
:102D2000099005F004F8CAF804B08AF80800B8F170
:102D3000000F00F0D1800123039A06998AF8003031
:102D4000059BDB1B61EB0202012B72F10000C0F25C
:102D5000BA80794D9D4279EB020200DB1D46D4F822
:102D6000F030D4F8B060002B40F0B280072220464B
:102D7000A6FB022804F0D2FF002800F0A680D4E9C8
:102D80002630D21848EB00039742039971EB0300F9
:102D90000DD2D21B6FF0010063EB010390424FF0A4
:102DA0000000984102D3954228BF15462E46CAF826
:102DB0001060049B5B4534BF002001200FB0BDE8CC
:102DC000F08F1FFA8BFB42F2107329463246EBFB61
:102DD0000312C4E924126DE788B36FF00043D4E90D
:102DE00024129A4208BFB1F1FF3F23D0204604F0DD
:102DF00082FF17F1AB02039B0546099008A843F137
:102E000000038DF82090CDE90C230223ADF8283083
:102E100002F01AFC10B94FF4966128E7D4E9243285
:102E20000C995B1A0D9962EB01025B1B62F10002C7
:102E3000002A3FDB3D46039E4FF001083AE7D4E904
:102E40003226D4F8B050BB1A5219B3FBF5F305FB88
:102E500003F346F100069B18A3EB070246F10006B8
:102E6000AA2A04D8ED1846F10006C84622E72046F3
:102E700004F041FFD4F8A020D4F8B05009902046C7
:102E80008DF820908DF82990D4E93213521AB2FBB4
:102E9000F5F26A43521843F10003CDE90C2304F024
:102EA00046FF29468DF8280008A804F02CFDDDE92E
:102EB0000C56DAE73D46039E4FF00108CDF810901E
:102EC000F8E604930FE74D4649E7D4E92A3058E77E
:102ED0004FF0FF32134657E78AF80080CAE90456DC
:102EE00067E7B9F1000F7FF496AED4F8B0802046C2
:102EF000D4E932B1A7EB0B0518EB0B03059141F1B7
:102F00000006B5FBF8F508FB05F5ED18D4E9262316
:102F100046F1000604F0E0FE08FB00F005992A46A1
:102F2000334610EB0B0041F10001C4E932012046A9
:102F300004F0D2FE99E700BF0040420F70B504468E
:102F40000D4690F8F43003F0FF0623B140F29A21C9
:102F50002120FDF717FB11B940F29B21F8E701464C
:102F60000C4802F0B9FA202884F8F70010D0C4F811
:102F7000F05095F8C83103F0FF0113B14FF42971F7
:102F8000E6E784F8F610204605F0B4F8012070BD9D
:102F90003046FCE71580000038B504460D46014672
:102FA000074802F099FA202884F8F70005D0204657
:102FB000294605F09FF8012038BD0020FCE700BF3E
:102FC00015800000F7B501231F4E00273370CDE9AF
:102FD00000776846FDF74EFE0546E8B100233370E2
:102FE00003B0F0BD90F8C90102F026FB94F8C901C6
:102FF00002F0CCFB94F8C90184F8C85102F05CFAE5
:1030000010B940F2C1111BE0202304F5D07084F800
:10301000C931FEF7CDFDDAE7009B002BD9D093F83C
:10302000C821002AD5D018884FF6FF739842D5D012
:103030002946FDF709FE04460028D3D14FF4E97173
:103040003520FDF79FFA00BF380D0020024B00220B
:10305000C3E90022FFF7B6BF380D0020014B5870BE
:10306000704700BF380D0020064B1B68D3F80001E5
:1030700038B1D3F8040120B1D3F80801B0FA80F0D8
:1030800040097047940F0020034B00221A705A70B9
:1030900010229A70704700BF840D0020F8B50646D4
:1030A000022014460D4600F01FF9114B114A01276A
:1030B000191D5C609A6002F1807203342D011F704B
:1030C000DC601D83C3E904260022243303F80A2CA4
:1030D0000D2203F8092C084A1268C2F83015074976
:1030E000C2F80875C2F8383503C983E80300F8BD93
:1030F000840D00200300000B940F0020002201002B
:1031000008B5022000F0F0F80D4B01221A700022E1
:103110000C4B1B68C3F80021C3F80421C3F8082135
:10312000094AC3F88020094BC3F88C20084B1B6860
:10313000C3F88C210822074BC3F8042508BD00BF43
:10314000840D0020940F0020030000800030085000
:10315000A00F002000200450154A08B51378FBB1D9
:10316000144B19680023C1F880301349C1F88C3022
:1031700012490968C1F88C310821114BC3F80815B0
:10318000FFF772FF88B101235370938EFF2B03D991
:10319000BA213B20FDF7F6F9DBB2937000231370E0
:1031A0000020BDE8084000F09FB810235070F4E7FD
:1031B000840D0020940F002000300850A00F002044
:1031C000002004500A4B1A786AB10A4B1B68D3F8E6
:1031D000002152B1D3F8040140B1D3F80801B0FA8C
:1031E00080F040097047587870470220704700BF50
:1031F000840D0020940F0020064A08B513782BB1E7
:10320000FFF732FF20B192F8340008BD9078FCE758
:103210001020FAE7840D00200A4B02211A680023CF
:10322000C2F88030084AC2F88430084A1268C2F8EE
:103230008431074AC2F8081502F58022C2F8083521
:10324000704700BF980F002000300850A00F0020EA
:1032500000200450024B00221A809A70704700BF71
:10326000BC0D0020054808B503781BB1FFF7D4FF5B
:103270000023037000234370837008BDBC0D002041
:1032800038B50A4D00242B68D3F80025032A04BF63
:1032900001225A60064A1268C2F80045C3F8004588
:1032A000FFF7E0FF2B68C3F8804038BD940F002083
:1032B000980F00200A4BB3F90030002B0DDB5A09A0
:1032C000012103F01F03994002F12003054A42F84F
:1032D0002310BFF34F8FBFF36F8FFFF7D1BF00BF36
:1032E000AC0F002000E100E010B50446FFF7C8FF76
:1032F000012C06D0022C0AD044B18C213D20FDF7D0
:1033000041F9084B02221B68C3F8002510BD064B8B
:1033100003221B68C3F8002502F10042C3F8802095
:10332000F4E700BF980F0020940F0020024BD3F861
:10333000A00300F00100704700C0FF00084BD3F865
:10334000A423D3F8A833511C9BB203D14FF6FF71CD
:103350008B4203D0026083800120704700207047B9
:1033600000C0FF000B4B30B5D3F89053D3F8944313
:10337000D3F89813D3F89C2305EA04030B401340B9
:10338000013317BF05600020446081601CBFC2602C
:10339000012030BD00C0FF000B4B30B5D3F8805387
:1033A000D3F88443D3F88813D3F88C2305EA0403B5
:1033B0000B401340013317BF05600020446081605B
:1033C0001CBFC260012030BD00C0FF00064B0022C0
:1033D000C3F80022C3F81822C3F82022C3F80C2235
:1033E000C3F81422704700BF00A00850024B00220F
:1033F0001A809A701A717047300E002038B5144D3B
:103400000346084695F83D2022B940F6B2113E2009
:10341000FDF7B8F86BB9012AAC6B95F83C1005D1F3
:1034200000F0F8FD20442B6BC01A38BD04F0E9FE13
:10343000F8E7012B0AD1012AAC6B95F83C1002D1B8
:1034400000F0DAFDEEE704F0E7FEEBE70020EAE744
:10345000300E002008B50128084B83F82400084BE3
:1034600006D0022808D040F6DC613E20FDF78AF83D
:103470000322C3F8002508BD0422FAE7300E00201D
:1034800000A0085008B5144B93F84A30D90720D54E
:103490009A070ED5114BD3F8002442F00102C3F86D
:1034A0000024D3F8200500F0F600023818BF0120F0
:1034B00008BD5B070DD5094B094AC3F80821A3F5E0
:1034C000A043D3F8403123B140F28A713E20FDF78A
:1034D00059F80120ECE700BF300E002000A0085092
:1034E0000B00008008B570B9104B28311846D96020
:1034F0000F4900F031FE0130012816D940F66D0168
:103500003E20FDF73FF801280CD1084B2931184621
:10351000D960074900F026FE0130012805D940F6A0
:103520007701EDE740F67B01EAE708BD6C0000207B
:103530003022010008B50C4B9B78012B09D100F01B
:1035400017FE013001280ED940F604213E20FDF778
:1035500019F8022B07D100F011FE0130012802D921
:1035600040F60A21F2E708BD300E00200A4B40F475
:1035700009000A4A1B8D40F04000B3F5166F36BFB4
:10358000A3F63813A3F5166343F48073C2F8083723
:10359000C2F84005704700BF300E002000A0085060
:1035A00037B50C460546FFF755FF20462146FFF785
:1035B000DDFF104A01AB284692F9252000F06CFD92
:1035C0009DF8050000F0E0FD20B140F255713E206D
:1035D000FCF7D8FF9DF9040000F0AAFC064B40F26E
:1035E0000312C3F8442E40F25B62C3F8482E03B0C6
:1035F00030BD00BF300E002000A008502DE9F84378
:103600000C4617468046434D00283FD10123AB703E
:103610002B78012B23D1404B33F812304FF47A72C0
:1036200003F5FA73B3FBF2F3CC1A2B6B3B4E1C443D
:103630003B4BC6F84045C6F8C0312B78002B57D11C
:1036400095F84A3043F0020385F84A30FFF71AFF35
:103650000546002853D100252846BDE8F8831046CA
:1036600095F82610FFF79CFF2E4B4FF47A7253F813
:10367000273003F5FA73B3FBF2F3E41A2B78002B2F
:10368000D3D1294B264AC3F80021CEE701282AD1FD
:103690000223254EAB702B78012B06D1D6F80034CF
:1036A00043F01003C6F80034BFE795F826901046A3
:1036B000FFF7D0FE293C4846FFF758FFD6F8003404
:1036C00043F01003C6F8003440F20313C6F8443E3A
:1036D00040F25B63C6F8483E2B78002BA5D1104B17
:1036E000C6F80431A1E74FF413613E20FCF74AFF0E
:1036F000012BABD195F84A3043F00403A4E7012332
:10370000F364D6F84C35A342A5DA21464046FFF7CC
:10371000E9FEA1E7300E0020B02201000050085061
:103720000B000080A422010000A0085008B5602210
:103730000021034804F0CFFEBDE80840FFF756BE65
:10374000300E0020024B0344187D00F516607047D0
:10375000302201000A4B93F83C20D3E90C30C01A08
:10376000084B03EB8203DB6BC01A074B53F8223084
:103770004FF47A7203F2F313B3FBF2F3C01A7047FB
:10378000300E002030220100982201000F4A08B5B7
:1037900092F83C10012906D0022914D040F2C6212B
:1037A0003E20FCF7EFFE40F61C40D2E90C239B1AAA
:1037B000074A02EB8102D26B9B1A4FF47A72B0FB7C
:1037C000F2F0184408BD4FF4AF60EEE7300E002071
:1037D00030220100FF2808B504D940F2E5213E203F
:1037E000FCF7D0FE124B0129A3F8480004D00229AF
:1037F00019D040F24131F2E7002343F4801340F046
:1038000000700C4A43F4847340F44030C2F8203E08
:10381000C2F8280ED2F8203503F0F703032B05D1A8
:103820004FF45671DBE74FF08073E6E708BD00BF49
:10383000300E002000A00850F8B5244E4FF48067E9
:10384000C6F89070BFF34F8FBFF36F8F204C0121EC
:10385000204DC4F8A410FFF7B9FD0323C4F8401E9F
:1038600085F82410C4F800354FF40023C4F8003460
:10387000194B187C00F09AFC03F0A4FA174B184A75
:10388000C4F83833174BC3F8C820013AC3F8C42032
:1038900040F6FE72144BC4F81433144BC3F80425DD
:1038A0000023AB87AB6385F84A3001F0EAFF4FF4A1
:1038B00080732863C6F89071C4F888342B6E376122
:1038C00003B19847BDE8F84000F03ABC00E100E0E1
:1038D00000A00850300E00206C0000200300008083
:1038E00006000080005008500100008000200850B1
:1038F000014B83F825007047300E0020020E034B69
:103900000002C3F8342EC3F82C0E704700A00850F4
:10391000044B054A034482F826001B7D03F5166319
:103920001385704730220100300E002010B5044688
:103930000068FFF7E3FF094B6268C3F84C2E207A5A
:10394000FFF7E6FF617A6089FFF744FF607AFFF7CF
:1039500081FD227B024B83F8252010BD00A008507A
:10396000300E00202DE9F041324C06460F4694F807
:103970004A30DA0704D440F6BE013E20FCF702FECE
:103980002D4D43F00203D5F8002442F00102C5F8A2
:10399000002484F84A3028BB012394F826103846C6
:1039A000A370FFF7FDFDA378012B02D040F6CA01FA
:1039B000E3E7224AD3642B60204B3046D3F84C55C2
:1039C0002946FFF78FFD236BED1A7EBB1C4B4FF48E
:1039D0007A7253F8273003F5FA73B3FBF2F35819F0
:1039E000BDE8F0810128E7D1022394F8268008463B
:1039F000A370FFF72FFD4046FFF7B8FDD5F8003460
:103A000043F01003C5F8003440F20313C5F8443EF8
:103A100040F25B63C5F8483EA378022B02D040F623
:103A2000D201AAE7054BDE646E60C5E705F1290007
:103A3000D6E700BF300E002000A00850005008500C
:103A4000A422010008B5FFF7D9FD58B9064B0122A1
:103A5000C3F8400503F5A04302201A61BDE8084001
:103A6000FDF7F6BF08BD00BF0050085013B5264B48
:103A70004FF48061254A4FF0FF30D3F88844C3F8F3
:103A80009004C2F890114FF40022214904F480748C
:103A9000C3F80024002281F84A201E49C1F84025BD
:103AA000C3F80821C3F80021C3F80421D3F8201576
:103AB000C9B2D1B18DF80700C3F8202201221A61E2
:103AC0009DF8072012B1D3F820223AB19DF80730B3
:103AD0005BB940F6F2113E20FCF754FD9DF807203B
:103AE000013AD2B28DF80720EAE7FFF723FD064935
:103AF0000023C1F82032FFF779FC1CB14FF480732A
:103B0000C1F8883402B010BD00A0085000E100E008
:103B1000300E00200050085070B50024234D244E74
:103B2000C5F84845C5F84445C5F84045C5F84C4575
:103B3000FFF79CFF00F00AFBC5F8C441C6F8084136
:103B4000C6F80041C6F80441C5F8C840C5F8C440ED
:103B500003F050F9174B40F6FE72C6F83843C6F82A
:103B60001443C5F8C041C3F808254FF48062124BD6
:103B70001C77C3E90D44114BC5F84845C5F84445C9
:103B8000C5F84045C5F84C45C5F84841C5F844411D
:103B9000C5F84041C5F84C41C3F89020BFF34F8FA2
:103BA000BFF36F8FC3F8902170BD00BF0050085065
:103BB00000A0085000200850300E002000E100E076
:103BC000014BC3F84C0E704700A0085010B50FC849
:103BD000014C84E80F0010BD940E002008B50B4B7B
:103BE000C3F8D00E0A4B93F84A20586442F0010201
:103BF00083F84A20FFF746FC30B9FFF737FF032070
:103C0000BDE80840FDF724BF08BD00BF00A0085074
:103C1000300E0020094B10B5C3F8D00E084B93F8B6
:103C20004A20586442F0010283F84A20FFF72AFC38
:103C3000044608B9FFF71AFF204610BD00A008503F
:103C4000300E002010B50E4C0346022294F83D00C1
:103C50002277012894F83C1094F824204FF0960025
:103C60000BD100F0E3F9074A00232062C2F8443187
:103C7000A36B0344C2F8443510BD00F0F1F9F2E73C
:103C8000300E002000500850044BC3F8940ED3F8B7
:103C9000002442F04002C3F80024704700A00850FE
:103CA000054BD3F8002422F04002C3F80024002280
:103CB000C3F8942E704700BF00A00850044BD3F8FF
:103CC000183703F07F035B4203700120704700BF89
:103CD00000A008500022044B90421A70D97014BF03
:103CE000022201225A707047300E00202DE9F04761
:103CF0000123824C824DB4F84870EB64D5F84C2512
:103D0000236BA2EB030801F0BFFBC4F85880C4E9A1
:103D10001401FFF70FFC7B4A0023C2F80831C2F8F8
:103D20000031C2F80431D2F8001421F01D01C2F8AC
:103D3000001484F84A30237F23B1D5F84431003B86
:103D400018BF0123A17801290AD1D2F81852002DF9
:103D500043D16C4BD3F82032ABB145F0100512E0E3
:103D6000022938D1674AD2F81852D2F80C2E003DF9
:103D700018BF0125D6074FEA450558BF45F0040591
:103D80002BB345F00105FFF721FBE806A37803D527
:103D9000012B08BF45F02005594A94F80190D2F84C
:103DA0004815A163D2F8442584F83D3094F82430B6
:103DB000626384F83C30B9F1000F10D1FFF716FBB5
:103DC00084F81C90E9077DD5636E984744E015F0B0
:103DD0000B0FD8D1BDE70025BBE70825D3E715F0C9
:103DE000110F0ED1B9F1010A2379267818BF4FF0CF
:103DF000010A012B43D0022B56D02BB14FF4446162
:103E000045E0FFF733FEDDE796215046FFF7F6FA6F
:103E10000146FFF7EBFA012E50D1B9F1010F14BFA3
:103E2000272333239844884543D90220FDF710FE09
:103E3000344B30461E61AA0746D5636C01465B7859
:103E4000BB42A36E88BF45F00405C5F3800585F02D
:103E5000010505F001009847A378022B0DD1237FBF
:103E60005BB1022B264A3DD1A36B216A0B44C2F8F9
:103E70004435234B244AC3F8C421BDE8F0872348C6
:103E8000FFF754FD94F83D3023B940F6B5013E20CC
:103E9000FCF778FB012B04D1FFF778FCA369C1186C
:103EA000B7E7FFF757FCF9E71848FFF73FFDA169AF
:103EB000AFE7134B00222670C3F84021E27850464A
:103EC000FFF7C0FD0020B6E715F0280F05F0200130
:103ED00004D0B1FA81F1E36E4909BCE7EB06BBD52A
:103EE000236F72E7012B02D040F69F51CFE7236A80
:103EF000A16B8B42BBD84FF45A61C8E7300E00204B
:103F00000050085000A0085009000080380E002022
:103F1000024B03EB8003D86B704700BF30220100D7
:103F2000024B03EB8003986C704700BF3022010006
:103F30002E3008B5362854D8DFE800F050535353DC
:103F400053534D53535353535353535353534B534F
:103F5000535353535853585349534753455343535B
:103F6000413F3D3B39373533312F2D2B2927252331
:103F7000215A1C003F231F4AC2F8103708BD3323C3
:103F8000F9E72D23F7E72823F5E72323F3E71F239A
:103F9000F1E71B23EFE71823EDE71523EBE71323E6
:103FA000E9E71123E7E70F23E5E70D23E3E70B2319
:103FB000E1E70A23DFE70923DDE70823DBE707233F
:103FC000D9E70623D7E70523D5E70423D3E703235F
:103FD000D1E70123CFE74FF49873CCE74FF4887310
:103FE000C9E74FF486713F20FCF7CCFA0223C2E701
:103FF0003923C0E700A00850054B4FF47A7202380D
:1040000033F8113003F2E733B3FBF2F3184470478F
:1040100090220100044B4FF47A7233F81130B3FB55
:10402000F2F30133184470479022010038B51D4661
:104030000A4B33F8114003EB820305359B681C449F
:104040004FF47A7304F6B73403FB00441046B4FB14
:10405000F3F42544FFF75CFF284438BD90220100AB
:1040600070B5064608461546FFF75AFF094B03EBA5
:1040700085039C684FF47A7304F6B73403FB064457
:10408000241A2846B4FBF3F4FFF742FF053020441E
:1040900070BD00BF902201002DE9F04F264C87B083
:1040A000074698460D46164601F0B4FE2378814631
:1040B000BB4211D16378AB420ED194F90230B342C6
:1040C0000AD1E378834207D1A388A8F8003094F995
:1040D000060007B0BDE8F08F7B1EDBB2032B0DD8C6
:1040E000164A294612F803A00DF11703324650462E
:1040F00001F096FE38B14121A92002E040F2FE41D4
:104100000620FCF73FFA039028469DF917B0FFF709
:1041100019FB039A0346414658460092524600F066
:1041200039F8B8F80030A071A38027706570A670C8
:1041300084F80390CBE700BF80000020B622010086
:10414000014B1B685B6818471C010020014B1B6872
:104150009B6818471C010020014B1B681B6918470E
:104160001C010020014B1B685B6918471C010020E3
:10417000014B1B689B6918471C010020014B1B6801
:10418000DB6918471C010020014B1B689B6A18471C
:104190001C01002030B4044C9DF80850246802959E
:1041A000E468A44630BC60471C01002000220D4991
:1041B000134610B540FA02F4E40744BFCA545C1C2D
:1041C00002F1010248BFE3B2042AF3D1054AFF24F9
:1041D000D118032B01D9107110BD013301F8014B27
:1041E000DBB2F6E7F815002008B5074801F05AF8E9
:1041F000054800F03FF801F009FD01F003FC00F074
:10420000A7FB012008BD00BFF40F002008B501F096
:1042100025F801F0D1FC01F019FCBDE8084000F0E0
:10422000B3BB01F035BD01F06FB810B5EFF31084EA
:1042300072B601F069F804B962B610BD01F076B843
:1042400001F08EBD01F044BD01F054BD01F054BD3C
:1042500001F058BD01F07ABD08B5054B1A781AB1C6
:104260002721032002F08EFB5860197008BD00BFA3
:10427000FC0F0020024B986000221A705A607047B1
:10428000FC0F0020F7B51E4C2378012BDAB204D0C6
:10429000022A2ED0012003B0F0BD0DF107016068A5
:1042A00000F07EFB65686B7DDB071CD5AB7F042BC4
:1042B00019D001F083F80646A8B101F085F82B6902
:1042C000D5E900279A18B36847F100070A332CBFD5
:1042D000012500251B1845EB01059342BD4102D382
:1042E000606800F02DFC0023636023709DF80700D8
:1042F000D1E70DF10701606800F05CFBF3E700BF58
:10430000FC0F002010B5837F8BB9034601F1180222
:1043100051F8044B914243F8044BF9D101248477BE
:104320002146FFF799FF00F0E1FF204610BD002075
:10433000FCE773B505460C4601F040F80646AB7F36
:10434000012B1AD021462B4604F1180251F8040B18
:10435000914243F8040BF9D101230DF107012846DE
:10436000AB7700F01DFB16B1012002B070BD044B0D
:104370000421986803F0C2FFF6E70020F5E700BFCC
:10438000FC0F002010B5FFF7D4FF044620B1034B0B
:104390000621986803F0B2FF204610BDFC0F0020F4
:1043A000024B0621986803F0A9BF00BFFC0F002054
:1043B00010B5EFF3108472B601F000F818B9C921F6
:1043C000032002F0DFFAFFF7EBFF04B962B610BD7D
:1043D00010B504460221FFF73FFF00F087FFA07FE2
:1043E000B0FA80F0400910BD38B50446A37F03B988
:1043F00038BDA37F032B02D0A37F042B0FD1EFF393
:10440000108572B6204600F0F0FA05B962B6A37FB7
:10441000002BEDD040F20D11032002F0B3FAA37F80
:10442000012B02D14FF48971F6E704F005F8DDE7BE
:1044300010B50446FFF7CCFF20B92046BDE8104078
:10444000FFF7D2BF10BD13B50DF1070100F0B2FAAE
:10445000044600F0B3FF20B940F22F11032002F010
:1044600091FA204602B010BDF8B504460F4600F0A0
:10447000ABFF0025A4682418384641F10006224607
:10448000334600F001FBA04271EB060309D3001B89
:104490006FF0010361EB0601834275EB010102D36A
:1044A000F8BD2846FCE74FF0FF30F9E710B5EFF311
:1044B000108472B6FFF7D8FF04B962B610BD2DE9BB
:1044C000F04185681746002306464A190C465B41B1
:1044D00013B10020BDE8F08100F076FF2A183846BD
:1044E00041F1000314EB020843F1000500F0CCFA9F
:1044F0004045A941EDD301F0CBFB00F075FAB3685C
:10450000012037752344B360E4E710B5EFF310845E
:1045100072B6FFF7D4FF04B962B610BD837F012BDA
:1045200001D100F08DBB00207047D0E90001704739
:104530000069704700F048BF10B5EFF3108472B601
:1045400000F042FF04B962B610BD80687047007D7C
:104550007047F8B50369044623B140F2D511032032
:1045600002F010FA01F094FB05460E4602F02CF919
:1045700070B36435D4E9003246F10001AB4272EB0E
:10458000010001D22B460A46C4E90032EFF3108540
:1045900072B600F013FF064698B100F015FFB3683D
:1045A0000B332CBF012200221B18D4E9006042EB20
:1045B0000101B34271EB00023CBF33460146C4E93E
:1045C000003105B962B62046BDE8F84000F0D2BA25
:1045D00002F01AF9074600F00DFFB84238BF38461E
:1045E000963546F100024319D4E9000142F1000278
:1045F000834272EB0105C7D20346C4E7042300F1EE
:10460000180283770023037643768376C376044BC0
:10461000196811B91A605A60704759680A60FAE758
:10462000081000202DE9F843DFF86C8000240646CE
:104630000F46D8F80830204633B950B3174B1878D6
:10464000BDE8F84302F046BB53E90612D3F80090E8
:10465000B14272EB07051AD253F8085C6D1842F1AB
:104660000002B542BA4112D24CB1226812682260EF
:10467000A3F11800FFF7C2FF01204B46DCE7D8F892
:104680000820002AF4D01268C8F80820F0E71C4679
:10469000F3E7BDE8F88300BF0810002065010020A3
:1046A0002DE9F047304B4FF0000E05469446C2F816
:1046B00000E09868002855D018380746BA69002AE3
:1046C00050D0D0E9009352E906684E4578EB0304D8
:1046D00003D2BF219F2002F055F9A94573EB0104D5
:1046E0000BD2046914EB090443F10003A542A1466F
:1046F00071EB03043CBFA9460B46AE4278EB0104C4
:104700000BD252F8084CA41948F10008A5422646DD
:1047100071EB08043CBF2E46884684680A344EF18B
:10472000000A14EB090443EB0A03A64278EB0303E7
:1047300018D2047D12F8043C9C420DD08CBF01239A
:1047400000232BB107F11803A2F11800CCF80030B8
:10475000BF693FB1183FB1E79388848B1B1BC3F33C
:10476000C033EEE7BDE8F087081000202DE9F04FD8
:1047700085B082834E4A04460091D2F808C094F86E
:104780001580D0E90030BCF1000F40D0ACF1180129
:10479000002708F00109D1E90026934270EB0605D5
:1047A0006DD3B9F1000F2CD0277D0D7DAF4228D3FA
:1047B0008D68AD1846F1000615F10A0A46F1000EA3
:1047C000534570EB0E0219D22269D21840F100074E
:1047D00092457EEB070B01D252467746AA42B7417B
:1047E0000FD220460024FFF709FF324B187802F061
:1047F00071FA009B1C7005B0BDE8F08F1A460746A1
:10480000ECE78A690F4622B1A2F11801C3E76246BC
:10481000674618F0010F37D0A168C91840F1000BA6
:1048200001918AB3019DD2E9001615F10A0E4BF1F0
:1048300000058E45B54127D394F814E0157DAE45AB
:1048400019D395686D1846F1000615F10A0946F16D
:1048500000084B4570EB080113D22169C91840F1DB
:10486000000E894578EB0E0A01D24946C646A94298
:104870007EEB060EB5D3926932B1183AD2E70A46FA
:10488000C7E719468646F2E704F118035FB1BA6933
:10489000A261BB6103AA00200021FFF701FF231AD8
:1048A0005C425C41A5E7024AC4F818C09360F1E796
:1048B0000810002065010020F8B5244C0023E360B7
:1048C000EFF3108272B621686360E160236002B981
:1048D00062B60026E36803B9F8BD9A79A3F118001F
:1048E000032A07D11A6801219E7153F80C3CE2603B
:1048F0009847EFE7196851B1A1F118030746002264
:104900009D7F042D09D09B7F032B02D1B2B9E160BA
:1049100017E063219F2002F035F8B0F81CC09D8B92
:10492000A5EB0C052D049D6944BF07F1180218463C
:10493000002DEBD01F46A5F11803E1E713681B68B3
:104940001360C36802218677D2E700BF08100020F9
:1049500010B50A4C2378FF2B04D04FF484719F20AC
:1049600002F010F8064802F08BF9064B0022207086
:104970009A601A605A601A8210BD00BF650100205B
:10498000B94800000810002010B5044C2078FF281A
:1049900003D002F08FF9FF23237010BD65010020C2
:1049A000034B1A8A10B4541C1C8210BCDEE600BFF4
:1049B0000810002037B504460D4601AA002100204A
:1049C000FFF76EFE231A04F118015842584128706F
:1049D000044803F0B9FC10B100230120A37703B011
:1049E00030BD00BF101000201CE638B5114B044646
:1049F00000F118011A68B2B11A6800209AB1914208
:104A00000ED108B1A56905601D68A94204BF1268EE
:104A10001A605A68914200D158600023A37707E0DA
:104A200010461268EAE7044803F08EFC0028F4D12F
:104A300038BD00BF081000201410002037B505460F
:104A40000C46FFF7EFFD01AA28462146FFF728FE96
:104A500028B100F11803034A536103B030BD034687
:104A6000F9E700BF0810002010B5064C616904F199
:104A7000080003F069FC18B160690023183863610D
:104A800010BD00BF081000209C46144BF0B59D6877
:104A9000FDB115F8043C183D834218D812F10A0400
:104AA000D5E900364CF10001A34276EB01070BD2A9
:104AB0002F69FF1846F10006A7428E4107D3B4F1D3
:104AC0000A0041F1FF31F0BD1C463146F7E7AD6900
:104AD000DEE74FF0FF300146F5E700BF0810002089
:104AE00008B5837F022B1CD1437D13F0020302D053
:104AF0000023837708BD0322037643768376C3764B
:104B00000D4B827700F11802196839B91A605A60A2
:104B10000A4B1878BDE8084002F0DCB859680A6012
:104B2000F5E7837F012BE5D0837F042BE2D04FF4A0
:104B3000FB719F2001F026FF081000206501002076
:104B400010B500F118010446084803F0FDFB20B938
:104B50004FF400719F2001F015FF2046FFF74EFD36
:104B6000034BBDE81040187802F0B4B810100020D4
:104B7000650100202DE9F74FD0F810E0BEF1000FDD
:104B800004D040F21F219F2001F0FCFE836890F8C2
:104B900014800193D0E90014EFF3108972B6274B0B
:104BA000B3F810C09B686BB1019D183B0A35D3E97F
:104BB00000264EF1000A6D1844EB0A0A95427AEB82
:104BC000060707D2B9F1000F35D0C0E9001403B0D1
:104BD000BDE8F08F8A4276EB04070CD31F69BF183B
:104BE00046F1000BAF427BEB0A0B34BF01250025D9
:104BF00075B99B69D7E712F10A0A9D6846F100076B
:104C000015EB0A0547F10007A94274EB0707ECE72B
:104C10001D7DA84509D0ECD912F10A019D6846F125
:104C20000004691844F10004E3E79D8BA5EB0C0533
:104C30002D04DED5F0E762B6C7E700BF08100020FC
:104C4000F7B50C460DF107010646878BFFF7B2FE5C
:104C500020B940F24A219F2001F094FE0FCC354646
:104C60000FC594E803003A4685E8030030460DF18D
:104C70000701FFF77BFD012003B0F0BD034B18785F
:104C800000F0FD00431E584258417047201000209C
:104C900038B5FFF7E9FE002580B1094CC4E90105EC
:104CA000E56000F0E7FE6068022329468377C36869
:104CB0009847D4E90401FFF797FE012038BD00BFF3
:104CC00020100020024B0521986903F017BB00BF9C
:104CD00020100020042938B5054613D005D8023924
:104CE000012915D940F2C91109E00529FAD1FFF7C8
:104CF000C5FF10B1114C607F60B140F2BF11B02010
:104D000001F040FEFFF7BEFA10B10C4B01221A77FA
:104D1000002012E0236A98470123206B6377084A3A
:104D2000D4E90A31323B41F1FF31181841F1000159
:104D300000F07EFF034B02202B6038BD20100020C6
:104D4000C54C00007D500000064B586810B520B9D6
:104D500040F28D21B02001F015FEC3680621BDE8A8
:104D600010401847201000202DE9F84F2B4D8146A8
:104D70006B7F2E6B002B3AD1FFF780FF074618B1EF
:104D8000AB8E9E4238BF1E4600F082FF044680195B
:104D90008B4641F10001FFF751FE68B3D0E9008A6C
:104DA000B0457AF1000324D3B8EB06006AF10001A4
:104DB000844223465A467BEB01043CBF03460A4625
:104DC0009B1942F10002C5E90432154A00F030FF98
:104DD0004046514600F08EFEEFB1A98E114B124AAB
:104DE0008E4218BF1346C9F80030BDE8F88F00277F
:104DF000CAE700200146DBE76B7F33B12B78023B2B
:104E0000012B02D82B6A0120984700236B7700F012
:104E100072FE064BE7E7044BE5E700BF20100020D9
:104E2000C54C0000F74E0000314E0000C94E000096
:104E3000042938B5044624D007D80239012938D9C5
:104E400040F26B11B02001F09DFD0529F8D100F072
:104E500053FE194D01F0ACFCFFF710FFD8B16B7F8A
:104E6000CBB900F015FFAA8E2B6B9B1A134AC5E92C
:104E70000A01181841F1000100F0DAFE104B23601E
:104E800007E0FFF7FFF9A0B100F0F2FE2046FFF7C0
:104E90006BFF022038BD00F0FBFE2B6B074A323B54
:104EA00065EB0505181845EB010100F0C1FE054B47
:104EB000E5E70020EEE700BF20100020C54C000011
:104EC000D54C00007D500000032910B5044606D8DB
:104ED00001290ED840F21711B02001F053FD04292A
:104EE000F8D1FFF7CFF920B12046FFF73DFF0220B0
:104EF00010BD0020FCE7042938B5054613D005D8BD
:104F00000239012929D940F23B1109E00529FAD1DA
:104F1000FFF7B4FE10B1124C607F70B140F2331154
:104F2000B02001F02FFDFFF7ADF9B0B100F0A0FE09
:104F30002846FFF719FF022038BD236A984701234E
:104F4000084A6377236BD4E90401C01A61F10001B8
:104F500000F06EFE044B2B60EDE70020ECE700BF95
:104F600020100020C54C0000314E00002DE9F04714
:104F700080468A4691463A4C002B5ED0D3E90056D3
:104F8000854276EB01033CBF0E4605463146284676
:104F9000C4E9045600F0AEFDA38EB5EB080803F19A
:104FA000640366EB0A0A43454FF0000373EB0A0300
:104FB00021DA637F43B12378023B012B02D8236AB5
:104FC0000120984700236377FFF758FE0746236BBD
:104FD00003F5E17398457AF1000A15DA6FB1A08EF6
:104FE000204A281A66F1000100F022FE1E4BC9F883
:104FF0000030BDE8F0870027E9E71A4A2846314625
:1050000000F016FE194BF2E700F077FD01F0D6FB39
:10501000A38E206B4FB1834207D9E81A114A66F17B
:10502000000100F005FE124BE1E7281A0D4A66F177
:10503000000100F0FDFD0F4BD9E7637F33B123780A
:10504000023B012B02D8236A012098470023637793
:1050500000F053FD01F0B2FB00F04DFD064BC6E73A
:1050600020100020C54C00000D5100008D510000A3
:10507000F74E0000314E0000C94E0000023970B5F5
:105080000446032938D8DFE801F00502070E1D4B5E
:1050900000221A77002012E0FFF7F4F80028F9D078
:1050A000184B0122F5E700F029FDB0B1154B1B7F2D
:1050B00033B9FFF7EDFD18B1134B2360022070BD2B
:1050C00000F0E6FD06460D46FFF7B8FC2246034613
:1050D00029463046FFF74AFFF0E700200021FFF79E
:1050E000ADFC08B1FFF72CFD00F007FD01F066FBF9
:1050F0002046FFF739FEE1E740F2A511B02001F0AC
:1051000041FC00BF20100020E5510000042970B5CB
:10511000044613D005D8023901292ED94FF40F7156
:1051200009E00529FAD1FFF7A9FD10B1144D687FF8
:10513000B8B14FF40D71B02001F024FCFFF7A2F8D4
:10514000D8B100F095FD00F0A3FD06460D46FFF72F
:1051500075FC2246034629463046FFF707FF02202A
:1051600070BD2B6A98470123064A6B77D5E9040185
:1051700000F05EFD044B2360F1E70020F0E700BF84
:1051800020100020C54C00008D510000042970B58E
:10519000044611D007D8023901291FD940F217213E
:1051A000B02001F0EFFB0529F8D1FFF771FD40B108
:1051B0000B4B2360022070BDFFF764F870B100F064
:1051C00057FD00F065FD06460D46FFF737FC224609
:1051D000034629463046FFF7C9FEEBE70020EAE721
:1051E000E551000002392DE9F041064604292ED888
:1051F000DFE801F003090B2D0E00174A1378003B7E
:1052000018BF0123537700201FE0FFF73BF8FAE7B0
:10521000DFF8448000F044FC00F03AFD0C460546FF
:10522000FFF70CFC0746D8F80400FFF759FC0023F1
:1052300000222846C8F8043000232146C8E9042388
:105240003B463246FFF792FE0220BDE8F08140F275
:10525000EF11B02001F096FB2010002010B5EFF305
:10526000108472B60B4B0C4A9B691B6893420DD09D
:105270000A4A93420AD00A4A934207D000F03DFC02
:1052800001F09CFA00F037FC00F0F2FC04B962B6C1
:1052900010BD00BF20100020C94E0000F74E0000D6
:1052A000314E0000054B10B5054C03600023A06192
:1052B000237001F0A9FA3230206310BDC94E0000FE
:1052C0002010002008B5074B9A691168064A9142E0
:1052D00004D040F27221B02001F054FB3230186348
:1052E00008BD00BF20100020C94E000010B5EFF32C
:1052F000108472B6034B0421986902F0FFFF04B9D1
:1053000062B610BD2010002008B5064B5B6823B9BB
:1053100040F29321B02001F035FB034ABDE808407C
:1053200000F086BC20100020494D000008B5064B57
:105330005B6823B940F29921B02001F023FBBDE85E
:10534000084000F095BC00BF2010002008B5054BB8
:105350005A6822B940F29F21B02001F013FB9860F7
:1053600008BD00BF2010002008B5054B5A6822B9BF
:1053700040F2A521B02001F005FBD86008BD00BFB8
:1053800020100020054BDB6810B523B940F2AB219B
:10539000B02001F0F7FABDE81040184720100020B7
:1053A000054B9B6810B523B940F2B121B02001F044
:1053B000E9FABDE81040184720100020014B58685A
:1053C000704700BF2010002008B5054B5A6822B96D
:1053D0004FF42F71B02001F0D5FAD3E9040108BDD4
:1053E00020100020024B323118701A6299867047E3
:1053F0002010002008B5FFF741FC08B1014B988E42
:1054000008BD00BF201000200028ADBF00F16040A3
:1054100000F00F00044B00F56140B4BF185C90F839
:1054200000034009704700BF14ED00E0064B1B6805
:1054300010B51BB97621452001F0A4FA1A6A05219E
:10544000586ABDE81040104758100020064B1B68F2
:1054500010B51BB97021452001F094FA1A6A042195
:10546000586ABDE81040104758100020FFF76EBF83
:10547000FFF77ABF034800214022C0E9001108303D
:1054800003F029B858100020FEF7CBBE704708B5CE
:10549000074B1A681AB9C121452001F073FA054972
:1054A000D1600022C3E90022BDE80840FEF778BFC2
:1054B00058100020E55700001F2801D90020704730
:1054C000044B03EB4000037A002BF7D00023037258
:1054D0000120704758100020F8B50E4A0C460023F2
:1054E00002EB4306357A05F0FF0175B9DDB2FF27FF
:1054F0003772282673431A44C2E91A040648202248
:10550000184402F0E8FF2846F8BD0133202BE7D10C
:105510001D46F8E758100020A01000201F2810B5E5
:1055200001D9002010BD064B03EB4004247A002C67
:10553000F7D0282404FB0030C0E91A120120F1E75B
:105540005810002030B587B00C46054618220021BF
:10555000684602F0C0FF237853BBD4E904310A3B0C
:105560006268207A41F1FF310A328DF8140002920C
:105570009DF81520154822F003020390CDE9003173
:10558000637A6946C3F340035B0043F001031343AE
:105590008DF815300E4B5868C0F3080088B11038EC
:1055A000FFF732FF68B92846FEF7C3FE07B030BDEB
:1055B000FEF737FE226910F10A03049241F100015F
:1055C000CDE72846FEF79EFEF0E700BFE557000056
:1055D00000ED00E01F2830B411D80A4A02EB400465
:1055E000257A65B14B7A4832C3F3800383F0010317
:1055F0006372282330BC03FB0020FFF7A3BF002009
:1056000030BC70475810002008B50A4B0246586855
:10561000C0F3080040B11038FFF7F6FE20B910467D
:10562000BDE80840FEF70FBF1046BDE80840FEF792
:10563000CFBE00BF00ED00E0024B282202FB00308D
:10564000FFF7E2BFA010002010B5037886B0044633
:1056500023B14FF4AA71452001F094F905934168F4
:10566000CDE90333D0E90432007A0A310A3B8DF8E0
:105670001400684642F1FF320291CDE90032FEF794
:1056800068FF009B019A01200A3342F10002C4E93D
:10569000043206B010BD4FF4BA71452008B501F0D0
:1056A00071F908B5094B0A46596821B940F27911D8
:1056B000452001F067F901461868FEF700FF18B1B0
:1056C000FEF7BCFD002008BD0220FCE758100020BA
:1056D000194B70B50446586886B0C0F3080010B97D
:1056E000002006B070BD1038FFF78EFE034600287C
:1056F000F6D1C3F307230E7A4D6823F003030A356E
:10570000CDE90400D1E904208DF814600A3A0B4E6B
:10571000029540F1FF300396CDE900204A7A2046F9
:105720006946C2F34002520042F0010213438DF871
:105730001530FEF7F3FED4E700ED00E0E55700007A
:105740001F280AD8064B03EB4002127A2AB14833CD
:10575000282202FB0030FFF7BBBF0020704700BFCC
:1057600058100020034B5A6812B11868FEF7EFBEBC
:105770000220704758100020024B01461868FEF7BF
:1057800073BE00BF58100020FEF72EBE1F2808B5BC
:1057900004D940F2E511452001F0F4F8074B03EB82
:1057A0004002127A12B94FF4F371F4E74833282219
:1057B00002FB0030BDE80840FEF716BE581000207E
:1057C00008B5074B5B6823B94FF4F671452001F02B
:1057D000D9F8FEF7AFFE0A3041F1000108BD00BF65
:1057E000581000202DE9F0411C4F05461C4B0E4679
:1057F00007F14804041BE4105C43E4B2620007EBC9
:105800004404237A19BB3B681BB18E21452001F06B
:10581000B9F87B680BB18F21F8E707F1080313444F
:10582000C7E900030F48FFF791FD0F48FFF79CFD04
:10583000FFF7C6FF637A80464BB1FEF701FDA8EB88
:105840000000C7F8480500F035FA0028FBD02B6AA5
:105850003146686ABDE8F041184700BF5810002083
:10586000CDCCCCCC4D5400002D54000010B50446D6
:10587000FFF7A6FF201841F10001FEF7D4FC01203C
:1058800010BD024BD3F84805704700BF58100020E8
:10589000FEF7DABC7047FEF7D5BCFEF7D7BCFEF7C3
:1058A000D7BC08B5FFF79EFD002008BD70B50B788A
:1058B00086B023B140F23121452001F063F8059311
:1058C0000E7A4D68049228228DF814600A35124E23
:1058D00002950396D1E904340A3B44F1FF34CDE943
:1058E00000344B7A4FF00001C3F34004C3F380034C
:1058F00064F3410183F001038DF81510074901EBB2
:105900004004637201F14803694602FB0030FEF770
:10591000F9FC06B070BD00BFE5570000581000202C
:105920007FB5FEF77EFC002305930B4B039340F2FB
:105930001E2302934FF0FF33CDE90001694607486B
:105940000493FEF7F6FC18B9CB21432001F01AF8B6
:1059500007B05DF804FB00BF61590000A8150020E6
:1059600038B5062937D8DFE801F004383336363643
:10597000170002F0AEFCFEF7DDFD044617480D46A9
:10598000FEF7E3FD1E3C45F1FF312018BDE838402D
:1059900041F10001FEF747BC00F016FF38B10F4B94
:1059A000002283F82020BDE83840FEF7F9BC02F061
:1059B00092FC08B902F08DFC00224FF400710748F8
:1059C000FEF77DFD0028D6D1EA21432000F0DAFF62
:1059D000BDE83840A4E7F921F7E738BDA815002055
:1059E00010B5074C94F8203043B900F0EDFE28B90B
:1059F000012384F82030BDE8104091E710BD00BFBE
:105A0000A81500204FF000430D4A0E480021C2F8AF
:105A10008030A2F58022C2F88031012302F578326D
:105A2000C2F80435A2F58022C2F804352022064BC4
:105A300080F820101B68D3F81835436202F04BBD84
:105A400000400C50A8150020A40F00200023084A95
:105A5000C2F88030A2F58022C2F88031012302F51D
:105A60007832C2F80835A2F58022C2F808357047AE
:105A700000400C5008B506F095FC074AD2F858379C
:105A800043F00103C2F858370122044B1B68C3F8E6
:105A90001825BDE80840A3E700200E50A40F002001
:105AA00008B506F085FC0E4AD2F8583723F00103FA
:105AB000C2F858370B4B0C4A1B68526AC3F81825BA
:105AC00001220A4B5A604FF0FF32C3F8082320220C
:105AD000074BC3F89021BDE8084000F0C9B800BFEB
:105AE00000200E50A40F0020A815002000500850E0
:105AF00000E100E0704770477047704708B500F05C
:105B000063FEB0B90D4BD3F800314BB90C4A936A20
:105B10000133312B93620BD99C21432000F032FFDB
:105B200002F0D9FB08B1A021F7E702F0D0FB012079
:105B300008BD034B00229A62F9E700BF00E0105055
:105B4000A81500204CE700BF1848202208B5C0F86F
:105B50009020BFF34F8FBFF36F8F154BC0F890218C
:105B6000D3F8041521F00301C3F80415D3F8081580
:105B700041F00301C3F8081592FAA2F1B1FA81F1DC
:105B8000092904DD4FF473710A4800F0F1FEC3F8EF
:105B9000101501215960D9604FF00041C3F8801001
:105BA0004FF0FF31C3F80813026108BD00E100E0C7
:105BB0000050085038300100124B4FF4E062C3F837
:105BC00038230022C3F8AC25C3F8BC25C3F8CC2584
:105BD000C3F82021C3F82421C3F8282120220A4B2E
:105BE000C3F89C21C3F89C20BFF34F8FBFF36F8F86
:105BF000C3F89020BFF34F8FBFF36F8FC3F890218E
:105C0000704700BF00200E5000E100E008B5FFF72C
:105C1000D3FF054B4FF4A062C3F834232022034B7B
:105C2000C3F89C21DA6108BD00200E5000E100E0BD
:105C30000C4B10B51C681CB14B21042000F0A2FED7
:105C4000B1F5801F1A6004D340F2E141064800F02C
:105C50008FFE064B0122C3F8A005C3F8A415C3F8B4
:105C6000AC2510BDD81500203830010000200E50A2
:105C7000054A136833B100230449C1F8AC35C1F8B3
:105C800020311360704700BFD815002000200E504F
:105C900030B54FF0FF30064C6FF04041D4E900239F
:105CA000904271EB0305F9D31046C3F3130130BDE5
